:020000040000FA
:0400000080317F28A4
:100008007E1480312000911D6E288B112100111063
:100018002400141D2928941A1C287C08A03E860058
:100028008701010891000130F0007008FC071516DF
:10003800941E29287C08A03E8600870101089100AB
:100048000130F0007008FC07151614196928941A75
:1000580038282100E901E90A24001108F000700895
:100068002100CB0024001516941E69282100690878
:100078000319462824001108F0007008FC0021002C
:10008800E9015E281D307C02031858282400110855
:10009800F0007C08A03E86008701700881000130CE
:1000A800F0007008FC075E2824001108F0007008B2
:1000B8002100CB002400951F672895131108F00034
:1000C80070082100CB0024001516200091118B1513
:1000D800210011142000921D7D2824001108F00031
:1000E80070082100CB002000921124001516200072
:1000F80091117E1009008031812821008731FF2766
:100108008031E900FC01A0308400003085002C30EB
:100118008A314E227E10200080319228F030210052
:1001280099008731352780311F308C00113023002A
:100138008C000E3024008C0021009513A0309E0006
:100148008030240094003630950016141716971541
:1001580017157C3092002000911192112100921500
:1001680091150B1740308B008B1722008C166400FA
:10017800210021030319010021002203031D28295E
:100188002308E5006508F10000308731AB2780318E
:1001980021002408E5006508F10001308731AB270C
:1001A800803121002508E5006508F100023087311B
:1001B800AB27803121002608E5006508F1000330EF
:1001C8008731AB27803121002708E5006508F10059
:1001D80004308731AB27803121002808E500650805
:1001E800F10005308731AB27803121002908E5006F
:1001F8006508F10006308731AB27803121002A08D5
:10020800E5006508F10007308731AB278031210010
:100218002B08E5006508F10008308731AB278031ED
:1002280021002C08E5006508F10009308731AB276B
:1002380080312100A20168302100E500E430890BFB
:100248002329E50B2329000000302100C4000030D9
:10025800C3000030C2000030C1000030C0000030D0
:10026800BF000030BE000030BD00FA01FB017B0872
:10027800803AE5002C08803A6502031D45292B08C1
:100288007A0203184E2B640000308A3154228031E0
:100298007108E5007208E600E701E8016808F8005F
:1002A8006708F7006608F6006508F5000030863133
:1002B8009F26803178082100C8007708C700760893
:1002C800C6007508C500BF302000E100D330E0004B
:1002D8003330DF003330DE004430C7008030C600E2
:1002E8000030C5000030C4004030AD005330AC00D1
:1002F8003330AB003330AA00210048082000B10099
:10030800210047082000B000210046082000AF0067
:10031800210045082000AE008D31E82580312D08E8
:10032800CB002C08CA002B08C9002A08C8008A314B
:10033800722280314708E5004608E4004508E300DA
:100348004408E20084315A248031200061082100E9
:10035800C800200060082100C70020005F082100B5
:10036800C60020005E082100C5002308F500240807
:10037800F600890D893B8909F700F80001308631BC
:100388009F2680317808AD007708AC007608AB006E
:100398007508AA0021002508F5002608F600890D31
:1003A800893B8909F700F800013086319F268031A2
:1003B8007808C7007708C6007608C5007508C40025
:1003C800210048082000CB00210047082000CA006F
:1003D800210046082000C900210045082000C80067
:1003E8008A31722280314708B1004608B0004508BA
:1003F800AF004408AE008D31E82580312D0821007A
:10040800C80020002C082100C70020002B0821006C
:10041800C60020002A082100C50048082000B100B5
:10042800210047082000B000210046082000AF0046
:10043800210045082000AE00210048082000AD003A
:10044800210047082000AC00210046082000AB002E
:10045800210045082000AA008D31E82580312D08AB
:10046800E1002C08E0002B08DF002A08DE0021004C
:1004780044082000E500210043082000E400210092
:1004880042082000E300210041082000E2008431F6
:100498005A248031200061082100C400200060082F
:1004A8002100C30020005F082100C20020005E0870
:1004B8002100C10003308A31542280317108E500DF
:1004C8007208E600E701E8016808F8006708F70025
:1004D8006608F6006508F500003086319F268031F1
:1004E80078082100C8007708C7007608C600750894
:1004F800C500BF302000E100D330E0003330DF001A
:100508003330DE004430C7008030C6000030C500FC
:100518000030C4004030AD005330AC003330AB0085
:100528003330AA00210048082000B1002100470804
:100538002000B000210046082000AF002100450837
:100548002000AE008D31E82580312D08CB002C0825
:10055800CA002B08C9002A08C8008A3172228031D3
:100568004708E5004608E4004508E3004408E200BF
:1005780084315A248031200061082100C8002000FD
:1005880060082100C70020005F082100C600200085
:100598005E082100C50048082000AD00210047087A
:1005A8002000AC00210046082000AB0021004508CF
:1005B8002000AA000730A03E86008701403FAE0019
:1005C800413FAF00423FB000433FB1008D31E825C5
:1005D80080312D082100C80020002C082100C70008
:1005E80020002B082100C60020002A082100C50091
:1005F80048082000B100210047082000B000210071
:1006080046082000AF00210045082000AE00210068
:1006180048082000AD00210047082000AC00210058
:1006280046082000AB00210045082000AA008D31B3
:10063800E82580312D08E1002C08E0002B08DF00B8
:100648002A08DE00210040082000E50021003F08BC
:100658002000E40021003E082000E30021003D08BE
:100668002000E20084315A248031200061082100F2
:10067800C000200060082100BF0020005F082100A2
:10068800BE0020005E082100BD000130FA070030DE
:10069800FB3D3B2940302000AD000030AC0000306D
:1006A800AB000030AA0021002B08F5002C08F6004A
:1006B800890D893B8909F700F800013086319F26AA
:1006C80080317808C7007708C6007608C500750825
:1006D800C400210044082000CB002100430820006A
:1006E800CA00210042082000C9002100410820005A
:1006F800C8008A31722280314708E1004608E000CC
:100708004508DF004408DE008B31EB2380316108A7
:10071800B1006008B0005F08AF005E08AE008D3120
:10072800E82580312D082100B00020002C08210088
:10073800AF0020002B082100AE0020002A0821006D
:10074800AD002B08F5002C08F600890D893B8909B6
:10075800F700F800013086319F2680317808C700FD
:100768007708C6007608C5007508C400210040084F
:100778002000CB0021003F082000CA0021003E08CD
:100788002000C90021003D082000C8008A317222DB
:1007980080314708E1004608E0004508DF004408CA
:1007A800DE008B31EB23803161082100B40020008A
:1007B80060082100B30020005F082100B20020007B
:1007C8005E082100B1000D30A03E86008701403F41
:1007D8002000AA00413FAB00423FAC00433FAD00C0
:1007E8001130A03E86008701403FAE00413FAF0078
:1007F800423FB000433FB1008D31E82580312D08DC
:100808002100B80020002C082100B70020002B0888
:100818002100B60020002A082100B5004030200041
:10082800C7000030C6000030C5000030C4001930D1
:10083800A03E86008701403FDE00413FDF00423F87
:10084800E000433FE1001530A03E86008701403FAD
:10085800E200413FE300423FE400433FE5008431CA
:100868005A24803120006108CB006008CA005F0864
:10087800C9005E08C8008A31722280314708210009
:10088800BC00200046082100BB00200045082100CC
:10089800BA00200044082100B900031022008C1E71
:1008A80003140318B92822008C12BB286108803968
:1008B800E60066082100CC0020006135E6006608E5
:1008C8002100CE002000E01F6B2C21004E142100D7
:1008D8004E0803197F2C4E0A031D7B2C0030200084
:1008E800E1000030E0000030DF000030DE002000D2
:1008F800E017E101882C00302000E1000030E00022
:100908000030DF000030DE0065088039E600660848
:100918002100CD004D084C06031D4C1720006535FD
:10092800E60066082100CD002000E41F9D2C210070
:100938004D1421004D080319B12C4D0A031DAD2C8F
:1009480000302000E5000030E4000030E300003013
:10095800E2002000E417E501BA2C00302000E50091
:100968000030E4000030E3000030E20021004E08CF
:100978004D0203181A2D4C1FC72C80302000E600AA
:1009880066082100CC064E082000E6006608210013
:10099800CF004D082000E60066082100CE004F0871
:1009A8002000E60066082100CD0020005E08E60071
:1009B80066082100CF0020006208E6006608DE0015
:1009C80021004F082000E6006608E2005F08E60004
:1009D80066082100CF0020006308E6006608DF00F3
:1009E80021004F082000E6006608E3006008E600E2
:1009F80066082100CF0020006408E6006608E000D1
:100A080021004F082000E6006608E4006108E600BF
:100A180066082100CF0020006508E6006608E100AE
:100A280021004F082000E6006608E5002100CF01FC
:100A38004D082000E600E7016708E90021004E089C
:100A480020006602E800031CE9036908803AEA000E
:100A580080306A02031D322D1A306802031C722D81
:100A68002000610860045F045E0403193D2D013015
:100A78003E2D0030E60066082100CF00003020003F
:100A8800E1000030E0000030DF000030DE0021002F
:100A98004D082000E60066082100CE00772D4F1C87
:100AA8005D2D4F3601382000E60066082100CF0092
:100AB8005F2D0310CF0C20005E1C642D2100CF1782
:100AC80001302000E600E137E00CDF0CDE0CE60B1D
:100AD800672D0130E60066082100CE0721004D0889
:100AE8004E02031C532D4C1BB22D4E08031D862DA0
:100AF80000302000E1000030E0000030DF0000306E
:100B0800DE00080020006208DE076308DF3D640895
:100B1800E03D6508E13D611C372E21004F1C9C2DEE
:100B28004F3601382000E60066082100CF009E2DD0
:100B38000310CF0C20005E1CA32D2100CF1701301D
:100B48002000E600E137E00CDF0CDE0CE60BA62DFA
:100B58000130E60066082100CE07372E2000610824
:100B6800803AE6006508803A6602031DC52D6408D0
:100B78006002031DC52D63085F02031DC52D6208B1
:100B88005E020318FF2DFF30E600FF30E700FF305C
:100B9800E800FF30E9005E086202EA005F08633B94
:100BA800EB006008643BEC006108653BED006A08F7
:100BB800E6076B08E73D6C08E83D6D08E93D690804
:100BC800E1006808E0006708DF006608DE008030A2
:100BD800E60066082100CC06CF09CF0A4F08031D9E
:100BE800072E01302000DE070030DF3D0030E03DF9
:100BF8000030E13D072E6208DE026308DF3B64082F
:100C0800E03B6508E13B2000610860045F045E0486
:100C1800031D342E21004F08031D342E0030200000
:100C2800E1000030E0000030DF000030DE000800A6
:100C38000130DE35DF0DE00DE10D890B1D2E2100A1
:100C4800CF1F282E20005E1421004F1C2D2E0314C8
:100C58002E2E0310CF0D4E080319342E0130CE026C
:100C68002000E01F1C2E2100CD01CF1F452E4F086C
:100C78007F39031D422E20005E1C452E2100CD0128
:100C8800CD0A21004D080319762E01302000DE0719
:100C98000030DF3D0030E03D0030E13D611C762E44
:100CA8005E08E6005F08E7006008E8006108E90000
:100CB8000130EA00E937E80CE70CE60CEA0B5E2E97
:100CC8006908E1006808E0006708DF006608DE00E0
:100CD80021004E0A0319762E01302000E60066082E
:100CE8002100CE0721004E0A031D4E08031D892E40
:100CF80000302000E1000030E0000030DF0000306C
:100D0800DE0021004E080319CC014E1C8E2E200057
:100D1800E017932E7F302000E6006608E0052100EA
:100D28004E362000E6006608E1002100CC1F0800CE
:100D38002000E11708002000A4002408031DF81F64
:100D4800B52E7509A6007609A7007709A8007809C5
:100D5800A900A60A0319A70A0319A80A0319A90AC8
:100D6800BD2E7808A9007708A8007608A70075089E
:100D7800A6007808770476047504031DCC2E00308D
:100D8800F8000030F7000030F6000030F5000800E9
:100D98009630A0002008A500FE3029050319F32E7F
:100DA8000130A0002008A5070130A936A80CA70C1F
:100DB800A60C890BD92ED02E0130A0002008A5073B
:100DC8000130A6070030A73D0030A83D0030A93DFE
:100DD8000130A936A80CA70CA60C890BED2EFF3004
:100DE80029050319052FE02E02302502031C072FC1
:100DF8000130A5020130A635A70DA80DA90D890B54
:100E0800FF2EA81FF82E2518112FFF30A605FF303A
:100E1800A7057F30A805FF30A9050310A50C2508F4
:100E2800A000A101A201A3011830A035A10DA20DB7
:100E3800A30D890B192F2008A6042108A70422084E
:100E4800A8042308A9042408031DF81F2C2FA91798
:100E58002908F8002808F7002708F6002608F500F2
:100E680008000230F5007508A000A101A2010030B9
:100E78008731EA278731F50075082100A300013082
:100E88008731EA278731F50075082100A400023070
:100E98008731EA278731F50075082100A50003305E
:100EA8008731EA278731F50075082100A60004304C
:100EB8008731EA278731F50075082100A70005303A
:100EC8008731EA278731F50075082100A800063028
:100ED8008731EA278731F50075082100A900073016
:100EE8008731EA278731F50075082100AA00083004
:100EF8008731EA278731F50075082100AB000930F2
:100F08008731EA27F50075082100AC000030B000F1
:100F18000030AF000030AE000030AD000030B4004B
:100F28000030B3000030B2000030B1000030B8002B
:100F38000030B7000030B6000030B5000030BC000B
:100F48000030BB000030BA000030B9000800F400DF
:100F580023009518AC2F7408F200F3017208910071
:100F680073089200710893003F30F20072089505EB
:100F780003108B1B03148B13151555309600AA30DC
:100F8800960095141511031C08008B170800F9002A
:100F9800F501F6017108F300F4017308F70074080D
:100FA800F800791CDB2F7708F5077808F63D013043
:100FB800F735F80D890BDC2F0310F90C7908031DA0
:100FC800D52F7608F2007508F1000800F400ED2F1F
:100FD8002100640023009518EC2F7408F100F20139
:100FE80071089100720892003F30F300730895056C
:0A0FF80015141308080001341D341D
:10149C00640080010131890B4F2A0034F400740878
:1014AC00F3000130F335FF3E031D582A733521003C
:1014BC009D001D140B30F3006230890B632AF30B73
:1014CC00632A003221009D149D186A2A1D101C08E5
:1014DC00F2001B08F10008004B088039CC004C08C6
:1014EC00D5004B35CC004C08DC00CA1B5C145C08E6
:1014FC0003198E2A5C0A031D8B2A0030CB000030A6
:10150C00CA000030C9000030C800CA17CB01962AA7
:10151C000030CB000030CA000030C9000030C800D9
:10152C0047088039CC004C08D5064735CC004C0810
:10153C00DD00C61B5D145D080319B22A5D0A031D8C
:10154C00AF2A0030C7000030C6000030C5000030A4
:10155C00C400C617C701BA2A0030C7000030C60045
:10156C000030C5000030C40047084604450444045C
:10157C00031DD92A0030CB000030CA000030C9004E
:10158C000030C8008030CA047F30CB045508CC0032
:10159C004C08CB044B08C7004A08C6004908C500D4
:1015AC004808C40008005C08031DE52A0030C70089
:1015BC000030C6000030C5000030C40008005C08D4
:1015CC00CC00CD014D08CF005D084C02CE00031CB1
:1015DC00CF034E087F3ED60000304F3DD7004B085E
:1015EC00D4004A08D3004908D2004808D100003082
:1015FC00CB000030CA000030C9000030C8000030F9
:10160C00DB000030DA000030D9000030D800DD01FA
:10161C001A305D0203184A2B5D0803192C2B01307C
:10162C00D135D20DD30DD40D890B162B0130C83505
:10163C00C90DCA0DCB0D890B1D2BDB1B48140130BA
:10164C00D835D90DDA0DDB0D890B262B4708540242
:10165C00031D3A2B46085302031D3A2B4508520230
:10166C00031D3A2B44085102031C452B5B174408FD
:10167C00D1024508D23B4608D33B4708D43B013046
:10168C00CC004C08DD070E2B5408530452045104B3
:10169C00031D5814CA1B672B0130C835C90DCA0D60
:1016AC00CB0D890B532BDB1B48140130D835D90DCE
:1016BC00DA0DDB0D890B5C2BFF30D607FF30D73DE5
:1016CC00502BDD01DB1F802BFF305805CC00FF3089
:1016DC005905CD00FF305A05CE007F305B05CF0099
:1016EC004F084E044D044C04031948187E2B802BD4
:1016FC00DD01DD0A5D080319A92B0130C807003094
:10170C00C93D0030CA3D0030CB3D4B1CA92B4808CD
:10171C00CC004908CD004A08CE004B08CF00013060
:10172C00D000CF37CE0CCD0CCC0CD00B972B4F0858
:10173C00CB004E08CA004D08C9004C08C800013047
:10174C00D6070030D73D5708803ACC0080304C0289
:10175C00031DB22BFF305602031CC12BFF3020009F
:10176C00D6000030D7000030CB000030CA0000306B
:10177C00C9000030C80020005708803ACC008030E7
:10178C004C02031DCB2B013056020318D92B200021
:10179C00D601D7010030CB000030CA000030C900A0
:1017AC000030C800D50120005608CC004C08DC00E5
:1017BC005C1CE22BCA17E62B7F30CC004C08CA0508
:1017CC005C36CC004C08CB00CC2A61088039E20096
:1017DC0062082100CC0020006135E2006208210083
:1017EC00D2002000E01FFC2B2100521421005208D3
:1017FC002000E200E30162082100D700200063080A
:10180C002100D800FF3020005E052100DD00FF30F4
:10181C0020005F052100DE007F30200060052100E4
:10182C00DF000030200061052100E000570858045B
:10183C000319252CDF17570A5804031D2D2C0030D3
:10184C00E0000030DF000030DE000030DD00570823
:10185C005804031D3B2C00302000E1000030E00058
:10186C000030DF000030DE0008004C0803195E2C4D
:10187C000030DC004030DB000030DA000030D900F2
:10188C008030DB04FF30DC042130C9000030CA009A
:10189C005C082000E10021005B082000E000210032
:1018AC005A082000DF00210059082000DE00080043
:1018BC00570A5804031D7A2C7F30DC008030DB0083
:1018CC000030DA000030D9005C082000E100210073
:1018DC005B082000E00021005A082000DF002100F6
:1018EC0059082000DE0008008130D707FF30D83DB2
:1018FC00570801392000E20062082100D2000130B3
:10190C00D837D70C890B862C7F30D7070030D83DC1
:10191C005D35CE005E0DCF005F0DD000600DD100A7
:10192C000030E0000030DF000030DE000030DD0071
:10193C000130D6000030D5000030D4000030D30088
:10194C0052080319B02C0130CE35CF0DD00DD10D6E
:10195C00890BAA2CCD0119304D0203182F2D5308D9
:10196C00DD045408DE045508DF045608E004600862
:10197C005102031DCB2C5F085002031DCB2C5E08BB
:10198C004F02031DCB2C5D084E02031CDE2C5D08A0
:10199C00CE025E08CF3B5F08D03B6008D13B5308BA
:1019AC00DD075408DE3D5508DF3D5608E03DFC2CB4
:1019BC0053092000E200210054092000E30021001B
:1019CC0055092000E400210056092000E5006208BA
:1019DC002100DD05200063082100DE0520006408DD
:1019EC002100DF05200065082100E00553082000D8
:1019FC00E200210054082000E300210055082000DB
:101A0C00E400210056082000E5000130E536E40C26
:101A1C00E30CE20C890B0C2D65082100D60020008C
:101A2C0064082100D500200063082100D4002000A8
:101A3C0062082100D3000130CE35CF0DD00DD10D71
:101A4C00890B222D01302000E20062082100CD0715
:101A5C00B12C5D082000E20021005E082000E300AC
:101A6C0021005F082000E400210060082000E50050
:101A7C000130E536E40CE30CE20C890B3F2D6508D4
:101A8C002100E000200064082100DF002000630832
:101A9C002100DE00200062082100DD0001305D0520
:101AAC00D30000305E05D40000305F05D500003057
:101ABC006005D6005D082000E20021005E082000D1
:101ACC00E30021005F082000E400210060082000F2
:101ADC00E5000130E536E40CE30CE20C890B702DCB
:101AEC0065082100E000200064082100DF002000D0
:101AFC0063082100DE00200062082100DD0053088D
:101B0C00DD075408DE3D5508DF3D5608E03D601CFE
:101B1C00B82D5D082000E20021005E082000E300E3
:101B2C0021005F082000E400210060082000E5008F
:101B3C000130E536E40CE30CE20C890B9F2D6508B3
:101B4C002100E000200064082100DF002000630871
:101B5C002100DE00200062082100DD000130D707E3
:101B6C000030D83DFF305D05D900FF305E05DA004E
:101B7C007F305F05DB0000306005DC00570820007B
:101B8C00E20062082100D2005218DB175236200006
:101B9C00E20062082100DC007F302000E2006208D5
:101BAC002100DC055C082000E10021005B0820001E
:101BBC00E00021005A082000DF0021005908200015
:101BCC00DE0008002D088039B2003208B7002D3530
:101BDC00B2003208B900AC1B391439080319032EB2
:101BEC00390A031D012E0030AD000030AC0000306E
:101BFC00AB000030AA00AC170B2E0030AD0000304B
:101C0C00AC000030AB000030AA0031088039B200C3
:101C1C003208B7063135B2003208B800B01B3814A0
:101C2C0038080319262E380A031D242E0030B10063
:101C3C000030B0000030AF000030AE00B0172E2ED8
:101C4C000030B1000030B0000030AF000030AE000A
:101C5C003808031D3908031D3C2E0030AD00003040
:101C6C00AC000030AB000030AA0008002A08B2001B
:101C7C003208F10030088731CB278D317208C30050
:101C8C007108C2004208B200B301B401B5013508B5
:101C9C00BD003408BC003308BB003208BA0043084E
:101CAC00B200B301B401B5013508C1003408C0005D
:101CBC003308BF003208BE002B08B2003208F10016
:101CCC002F088731CB278D317208C3007108C200F1
:101CDC004208B200B301B401B5013208BA073308A7
:101CEC00BB3D3408BC3D3508BD3D4308B200B301D3
:101CFC00B401B5013208BE073308BF3D3408C03DFE
:101D0C003508C13D2C08B2003208F1002E0887318D
:101D1C00CB278D317208C3007108C2004208B20093
:101D2C00B301B401B5013208BA073308BB3D34081E
:101D3C00BC3D3508BD3D4308B200B301B401B5014B
:101D4C003208BE073308BF3D3408C03D3508C13DDD
:101D5C000830BA35BB0DBC0DBD0D890BAF2E2B0851
:101D6C00B2003208F1002E088731CB278D31720872
:101D7C00C3007108C2004208BA074308BB3D0030DB
:101D8C00BC3DBD3D2A08B2003208F1002F08873156
:101D9C00CB278D317208C3007108C2004208BA0704
:101DAC004308BB3D0030BC3DBD3D0830BA35BB0DD2
:101DBC00BC0DBD0D890BDC2E2A08B2003208F100D7
:101DCC002E088731CB278D317208C3007108C200F1
:101DDC004208BA074308BB3D0030BC3DBD3D2B0853
:101DEC00B2003208F10030088731CB278D317208F0
:101DFC00C3007108C2004208BE074308BF3D003053
:101E0C00C03DC13D2C08B2003208F1002F088731CB
:101E1C00CB278D317208C3007108C2004208BE077F
:101E2C004308BF3D0030C03DC13D2C08B200320814
:101E3C00F10030088731CB278D317208C30071084F
:101E4C00C2004208B2004308B300B401B501083027
:101E5C00B235B30DB40DB50D890B2E2F3208BE075C
:101E6C003308BF3D3408C03D3508C13D3D08B200C4
:101E7C00B301B401B5013208BE073308BF3D3408C5
:101E8C00C03D3508C13D0830BA35BB0DBC0DBD0D8C
:101E9C00890B4A2F39083807B200B301B30D320849
:101EAC00823EC200FF30333DC300C01B722F013095
:101EBC00BE35BF0DC00DC10D890B5E2FBD1B3E1471
:101ECC000130BA35BB0DBC0DBD0D890B672FFF3032
:101EDC00C207FF30C33D5B2FB801BD1F8B2FFF30F6
:101EEC003A05B200FF303B05B300FF303C05B400AF
:101EFC007F303D05B5003508340433043204031932
:101F0C003E18892F8B2FB801B80A38080319B42F43
:101F1C000130BE070030BF3D0030C03D0030C13D38
:101F2C00411CB42F3E08B2003F08B3004008B40077
:101F3C004108B5000130B600B537B40CB30CB20C87
:101F4C00B60BA22F3508C1003408C0003308BF00FF
:101F5C003208BE000130C2070030C33D4308803A4E
:101F6C00B20080303202031DBD2FFF304202031C31
:101F7C00C92F7F302000C1008030C0000030BF006E
:101F8C000030BE00F32F20004308803AB2008030AE
:101F9C003202031DD32F013042020318E02F003010
:101FAC002000C1000030C0000030BF000030BE0077
:101FBC00B701F32F20004208B2003208B900FF30FD
:101FCC00BE05FF30BF057F30C0050030C105391894
:101FDC00C0173936B2003208C1003708B2003208D7
:101FEC00C1044108AD004008AC003F08AB003E08FE
:041FFC00AA0008002F
:020000040001F9
:04000E00DCCFFFDF65
:10E000000000000000000000000000000000000010
:10E0100000000000FF00FF00FF00FF00FF00FF0006
:00000001FF
