:020000040000FA
:040000008331192B04
:100008007E1480318B1C3F280B12F530860022307D
:10001800870043310108031D2D28FA30860022305D
:10002800870001308100F530860022308700533187
:100038008101423086002330870081017C308600B0
:10004800233087008101B630860023308700810184
:100058003D28F5308600223087004631013081077F
:1000680041310030813D41310030813D4131003026
:10007800813D8B100B160B1CA4288B112700161D15
:100088005A2808308600233087000130810042302A
:1000980086002330870081017C308600233087006A
:1000A8008101B6308600233087008101961D7228B1
:1000B800F5308600223087005331810142308600B6
:1000C80023308700013081007C3086002330870090
:1000D8008101B6308600233087008101161F8A28E7
:1000E800F530860022308700533181014230860086
:1000F8002330870081017C3086002330870001305F
:100108008100B6308600233087008101961FA2281F
:10011800F530860022308700533181014230860055
:100128002330870081017C308600233087008101DD
:10013800B6308600233087000130810096018B1588
:100148002000111C8F2A181064000A302000640255
:100158000318D72800308F312D27803170082000F0
:10016800E1077108E23D01308F312D278031700899
:100178002000DF077108E03D02308F312D278031E4
:1001880070082000DD077108DE3D03308F312D2710
:10019800803170082000DB077108DC3D0130D10098
:1001A8005108E4078D2AF5308600223087004E3149
:1001B8000103031D2C290A30F0000030F100620809
:1001C800F3006108F2008F317A2780313A308600D7
:1001D800233087007008C03F7108C13F0A30F00023
:1001E8000030F1006008F3005F08F2008F317A27D1
:1001F800803174308600233087007008C03F710852
:10020800C13F0A30F0000030F1005E08F3005D08DD
:10021800F2008F317A278031AE3086002330870094
:100228007008C03F7108C13F0A30F0000030F1008B
:100238005C08F3005B08F2008F317A278031E830E0
:100248008600233087007008C03F7108C13F842AA8
:100258000A30F0000030F1006208F3006108F20093
:100268008F317A2780317008D1007108D200D3010C
:10027800D4015408B0005308AF005208AE0051082A
:10028800AD003E30860023308700403FD500413F17
:10029800D6005508B1005608B200B301B401403089
:1002A800860023308700403FD700413FD8005708D9
:1002B800B5005808B600B701B8010030BC000030DE
:1002C800BB000030BA000030B9003C308600233053
:1002D8008700403FD900413FDA005908BD005A085D
:1002E800BE00BF01C0018731782780313A308600CF
:1002F800233087002D08C03F2E08C13F0A30F00088
:100308000030F1006008F3005F08F2008F317A27AF
:1003180080317008D1007108D200D301D40154088B
:10032800B0005308AF005208AE005108AD00783055
:10033800860023308700403FD500413FD60055084E
:10034800B1005608B200B301B4017A3086002330F8
:100358008700403FD700413FD8005708B5005808EC
:10036800B600B701B8010030BC000030BB00003057
:10037800BA000030B9007630860023308700403F4D
:10038800D900413FDA005908BD005A08BE00BF0134
:10039800C001873178278031743086002330870088
:1003A8002D08C03F2E08C13F0A30F0000030F10090
:1003B8005E08F3005D08F2008F317A2780317008FB
:1003C800D1007108D200D301D4015408B0005308F9
:1003D800AF005208AE005108AD00B230860023309D
:1003E8008700403FD500413FD6005508B100560868
:1003F800B200B301B401B430860023308700403F17
:10040800D700413FD8005708B5005808B600B701D3
:10041800B8010030BC000030BB000030BA0000302A
:10042800B900B030860023308700403FD900413FF3
:10043800DA005908BD005A08BE00BF01C001873163
:1004480078278031AE308600233087002D08C03FE2
:100458002E08C13F0A30F0000030F1005C08F300BC
:100468005B08F2008F317A2780317008D10071085B
:10047800D200D301D4015408B0005308AF00520889
:10048800AE005108AD00EC30860023308700403FB5
:10049800D500413FD6005508B1005608B200B30157
:1004A800B401EE30860023308700403FD700413F3B
:1004B800D8005708B5005808B600B701B801003091
:1004C800BC000030BB000030BA000030B900EA3090
:1004D800860023308700403FD900413FDA005908A1
:1004E800BD005A08BE00BF01C0018731782780319E
:1004F800E8308600233087002D08C03F2E08C13F12
:10050800E101E201DF01E001DD01DE01DB01DC01E7
:10051800E40111101814911D092B8B1121001110E1
:100528002400141DBD2A941AAA2A20006508F53E45
:10053800860087012230873D0108240091000130A0
:100548002000D1005108E50724001516941EBD2A85
:1005580020006508F53E860087012230873D0108A6
:100568002400910001302000D1005108E507240043
:1005780015161419042B941ACE2A01302000D10024
:100588005108E600240011082000D1005108E300BA
:1005980024001516941E042B200066080319DC2A73
:1005A800240011082000D1005108E500E601F92ACD
:1005B800FB3065020318F32A6508F53ED100D20125
:1005C8002230D23D510886005208870024001108C5
:1005D800810001302000D1005108E507F92A2400E4
:1005E80011082000D1005108E3002400951F022BB8
:1005F800951311082000D1005108E30024001516B6
:10060800200091118B15210011142000921D172B29
:10061800240011082000D1005108E30092112400A1
:100628001516200091117E10090083311B2B87318C
:10063800FE278331E600F530840022308500FB3048
:10064800FE000030FF008F31062783315B308400C5
:10065800003085000B30FE000030FF008F31062788
:100668007E1020008331382BF0302100990086312C
:100678009B26833195132F308C000F3023008C007C
:10068800DF3021008D0023008D0124008C018D01B5
:1006980020008C018D0180302400940036309500B4
:1006A800161417169715171580309200200091110F
:1006B80092112100921591150B17CC302700950047
:1006C80058308B003430200098002100111420008D
:1006D80018148B176400F5308600223087004131EA
:1006E800010303190100F5308600223087004231EA
:1006F8000103031DF62B2100B7013708143EF53E10
:10070800860087012230873D0108AF002F08A0002E
:1007180037088731D627833101302100AF002F08F1
:10072800B70739303702031C812BB80138084E3E11
:10073800F53E860087012230873D0108AF002F086B
:10074800A0003808393E8731D6278331013021008F
:10075800AF002F08B80739303802031C9A2BB901AB
:100768003908883EF53E860087012230873D01081A
:10077800AF002F08A0003908713E8731D627833192
:1007880001302100AF002F08B90739303902031CA6
:10079800B42BBA013A08C23EF53E860087012230E2
:1007A800873D0108AF002F08A0003A08A73E87310F
:1007B800D627833101302100AF002F08BA0739301E
:1007C8003A02031CCE2BF5308600223087004231D6
:1007D800810168302100AF00E430890BF12BAF0BA9
:1007E800F12B0000F53086002230870043310103E9
:1007F800031D6C2EFF308600223087000030C03F7A
:10080800C13FC23FC33FFB30860022308700003023
:10081800C03FC13FC23FC33FF5308600223087004A
:1008280045318101F530860022308700533181013E
:10083800423086002330870081017C3086002330D7
:1008480087008101B6308600233087008101532E4E
:1008580022000C16F5308600223087004A3101301C
:10086800810741310030813D41310030813D4131C6
:100878000030813D0B302100AF006230890B422CE3
:10088800AF0B422C0000F5308600223087004E3135
:100898000103031D572CF5308600223087005331A1
:1008A80001030319B22CF5308600223087004A3143
:1008B800403F2100AF00413FB000423FB100433FFD
:1008C800B2002E30860023308700403FB300413FFE
:1008D800B400423FB500433FB60032083602031D5C
:1008E8007F2C31083502031D7F2C30083402031D8C
:1008F8007F2C2F083302031CB22CF53086002230DF
:1009080087004631403FAF00413FB000423FB10051
:10091800433FB2003230860023308700403FB300A7
:10092800413FB400423FB500433FB60032083602AB
:10093800031DA82C31083502031DA82C30083402E9
:10094800031DA82C2F083302031CB22CF530860097
:10095800223087004331010303192C2C22000C128A
:100968004C2E22000C17F5308600223087004A31C1
:100978000130810741310030813D41310030813DF6
:1009880041310030813D0B302100AF006230890BCE
:10099800CB2CAF0BCB2C0000F53086002230870023
:1009A8004E310103031DDF2C4230860023308700BF
:1009B800010303193A2DF5308600223087004A31A9
:1009C800403F2100AF00413FB000423FB100433FEC
:1009D800B2006830860023308700403FB300413FB3
:1009E800B400423FB500433FB60032083602031D4B
:1009F800072D31083502031D072D30083402031D69
:100A0800072D2F083302031C3A2DF53086002230BB
:100A180087004631403FAF00413FB000423FB10040
:100A2800433FB2006C30860023308700403FB3005C
:100A3800413FB400423FB500433FB600320836029A
:100A4800031D302D31083502031D302D30083402C6
:100A5800031D302D2F083302031C3A2DF530860074
:100A680022308700433101030319B52C22000C13EF
:100A78004C2E22008C17F5308600223087004A3130
:100A88000130810741310030813D41310030813DE5
:100A980041310030813D0B302100AF006230890BBD
:100AA800532DAF0B532D0000F53086002230870000
:100AB8004E310103031D672D7C30860023308700EB
:100AC80001030319C22DF5308600223087004A3110
:100AD800403F2100AF00413FB000423FB100433FDB
:100AE800B200A230860023308700403FB300413F68
:100AF800B400423FB500433FB60032083602031D3A
:100B08008F2D31083502031D8F2D30083402031D47
:100B18008F2D2F083302031CC22DF530860022309A
:100B280087004631403FAF00413FB000423FB1002F
:100B3800433FB200A630860023308700403FB30011
:100B4800413FB400423FB500433FB6003208360289
:100B5800031DB82D31083502031DB82D30083402A5
:100B6800031DB82D2F083302031CC22DF530860053
:100B7800223087004331010303193D2D22008C13D5
:100B88004C2E22008D16F5308600223087004A311F
:100B98000130810741310030813D41310030813DD4
:100BA80041310030813D0B302100AF006230890BAC
:100BB800DB2DAF0BDB2D0000F530860022308700DF
:100BC8004E310103031DEF2DB63086002330870018
:100BD800010303194A2EF5308600223087004A3176
:100BE800403F2100AF00413FB000423FB100433FCA
:100BF800B200DC30860023308700403FB300413F1D
:100C0800B400423FB500433FB60032083602031D28
:100C1800172E31083502031D172E30083402031D24
:100C2800172E2F083302031C4A2EF5308600223077
:100C380087004631403FAF00413FB000423FB1001E
:100C4800433FB200E030860023308700403FB300C6
:100C5800413FB400423FB500433FB6003208360278
:100C6800031D402E31083502031D402E3008340282
:100C7800031D402E2F083302031C4A2EF530860030
:100C880022308700433101030319C52D22008D123C
:100C9800F53086002230870043318101662EF53019
:100CA80086002230870044310108013A0319572C85
:100CB800033A0319DF2C013A0319672D073A031980
:100CC800EF2D4C2EF530860022308700443181010B
:100CD800F5308600223087004F310103031D772E3F
:100CE80022000C16792E22000C12F53086002230D4
:100CF800870050310103031D832E0C17842E0C131B
:100D0800F53086002230870051310103031D8E2EF5
:100D18008C178F2E8C13F5308600223087005231C5
:100D28000103031D992E8D166E2B8D126E2BF53037
:100D38008600223087000330C03FF530860022301D
:100D4800870041318101F530860022308700423129
:100D58008101F53086002230870043318101F5306A
:100D680086002230870044318101F5308600223028
:100D7800870045318101FB30860022308700003032
:100D8800C03FC13FC23FC33FFF30860022308700CB
:100D98000030C03FC13FC23FC33FF530860022301C
:100DA80087004E318101F5308600223087004F31AF
:100DB8008101F53086002230870050318101F530FD
:100DC80086002230870051318101F53086002230BB
:100DD800870052318101F530860022308700533177
:100DE8008101A70127088F31122786312100A4002D
:100DF8002708143EF53EA500A6012230A63D250889
:100E0800860026088700240881000130A4002408F1
:100E1800A70739302702031CF62E423086002330FC
:100E280087008101A8012808393E8F3112278631B1
:100E38002100A40028084E3EF53EA500A601223058
:100E4800A63D250886002608870024088100013071
:100E5800A4002408A80739302802031C172F7C3067
:100E68008600233087008101A9012908713E8F314E
:100E7800122786312100A4002908883EF53EA500E6
:100E8800A6012230A63D25088600260887002408EA
:100E980081000130A4002408A90739302902031C65
:100EA800392FB6308600233087008101AA012A082D
:100EB800A73E8F31122786312100A4002A08C23E9E
:100EC800F53EA500A6012230A63D25088600260885
:100ED8008700240881000130A4002408AA073930BB
:100EE8002A02031808005B2F31083502C1003208B6
:100EF800363BC2003308373BC3003408383BC400D4
:100F08004408A3004308A2004208A1004108A00029
:100F180031082D02C50032082E3BC60033082F3B8E
:100F2800C7003408303BC8004808F3004708F200FF
:100F38004608F1004508F00039083D02C9003A08A2
:100F48003E3BCA003B083F3BCB003C08403BCC0043
:100F58004C08F7004B08F6004A08F5004908F40069
:100F68008F314B2787317308A7007208A6007108D4
:100F7800A5007008A4008F31AE2720083907CD00DE
:100F880021083A3DCE0022083B3DCF0023083C3DD6
:100F9800D0005008B0004F08AF004E08AE004D0812
:100FA800AD000800A30023009518D72F21002308BF
:100FB800A100A2012108230091002100220823009A
:100FC800920021002008230093003F302100A10057
:100FD80021082300950503108B1B03148B1315158B
:100FE80055309600AA30960095141511031C080078
:060FF8008B170800013414
:101E0C006400800101310130FE020030FF3B7F088D
:101E1C007E0403190034072FA300152F2100640042
:101E2C0023009518142F21002308A000A1012008DD
:101E3C002300910021002108230092003F30210053
:101E4C00A200220823009505151413080800F300BE
:101E5C007308F2000130F235FF3E031D312F72354D
:101E6C0021009D001D140B30F2006230890B3C2FB9
:101E7C00F20B3C2F003221009D149D18432F1D1096
:101E8C001C08F1001B08F00008000030FB000030BB
:101E9C00FA000030F9000030F800701C5D2F740857
:101EAC00F8077508F93D7608FA3D7708FB3D0130D7
:101EBC00F435F50DF60DF70D890B5E2F0130F33669
:101ECC00F20CF10CF00C890B652F73087204710481
:101EDC007004031D532F7B08F3007A08F200790875
:101EEC00F1007808F0000800F501F60170087104A3
:101EFC000319A92FF701F70AF11B8E2F0130F035CA
:101F0C00F10D890B852F0130F4007408F707822F2F
:101F1C000130F535F60D890B8F2F71087302031DF7
:101F2C00992F70087202031CA02F7008F20271081E
:101F3C00F33B75140130F136F00C890BA12F0130F5
:101F4C00F702031D8E2F7608F1007508F0000800CB
:101F5C000030AB000030AA000030A9000030A8000F
:101F6C0023082204210420040319F72FAC01AC0A26
:101F7C00A31BCC2F0130A035A10DA20DA30D890BF5
:101F8C00C12F0130FC007C08AC07BE2F0130A835F6
:101F9C00A90DAA0DAB0D890BCD2F23082702031D0C
:101FAC00E12F22082602031DE12F21082502031D23
:101FBC00E12F20082402031CEC2F2008A402210886
:101FCC00A53B2208A63B2308A73B28140130A336C7
:101FDC00A20CA10CA00C890BED2F0130AC02031D3F
:101FEC00CC2F2B08A3002A08A2002908A10028083E
:061FFC00A0000800FB3408
:020000040001F9
:04000E00DCCFFFDF65
:10E000000000000000000000000000000000000010
:10E010000000000000000000000000000000000000
:10E0200000000000000000000000000000000000F0
:10E0300000000000000000000000000000000000E0
:10E0400000000000000000000000000000000000D0
:10E0500000000000000000000000000000000000C0
:10E0600000000000000000000000000000000000B0
:10E0700000000000000000000000000000000000A0
:10E080000000000000000000000000000000000090
:10E090000000000000000000000000000000000080
:10E0A0000000000000000000000000000000000070
:10E0B0000000000000000000000000000000000060
:10E0C0000000000000000000000000000000000050
:10E0D0000000000000000000000000000000000040
:10E0E0000000000000000000000000000000000030
:10E0F0000000000000000000000000000000000020
:10E10000000000000000000000000000000000000F
:10E1100000000000000000000000000000000000FF
:10E1200000000000000000000000000000000000EF
:10E1300000000000000000000000000000000000DF
:10E1400000000000000000000000000000000000CF
:10E1500000000000000000000000000000000000BF
:10E1600000000000000000000000000000000000AF
:10E17000000000000000000000000000000000009F
:10E18000000000000000000000000000000000008F
:10E19000000000000000000000000000000000007F
:10E1A000000000000000000000000000000000006F
:10E1B000000000000000000000000000000000005F
:00000001FF
