:020000040000FA
:04000000813106291B
:100008007E1480310B1C4D288B1120002403031D06
:100018004A287B08031D4A2827001618961B1C2807
:100028007808031D1C280130F6007608F900161020
:10003800961B161827287908031D27280130F60073
:100048007608F800961316192B28161F38287903F6
:10005800031D7803031D38280130F60076082000B8
:10006800C40027001611161396193C28961E4B2813
:100078007903031D7803031D4B280130F600760829
:100088002000C3002700961196124B2827009601DE
:100098008B152000111C9A288B1118106400200061
:1000A8002403031D8F28CE010D1C0D1962288D1DF8
:1000B8008D1A62280D1B62288D1F832828030319B7
:1000C80069280130C1070030C23D4208F1004108EB
:1000D800F0004230F2000030F3008331DD2380313C
:1000E80027087102031D7A2826087002031C81283C
:1000F8000130F6007608A8008628A8018628A801FD
:10010800C101C2012803031D94282503031D942857
:1001180022000C1796280130F6007608CE00A801B8
:1001280022000C138B15200011101814911DF628AD
:100138008B11210011102400141DBC28941AAF281B
:100148007A08203E86008701010891000130F600F8
:100158007608FA071516941EBC287A08203E8600F1
:100168008701010891000130F6007608FA07151694
:100178001419F128941AC9280130F6007608FC00F1
:100188001108F6007608F7001516941EF1287C0869
:100198000319D4281108F6007608FA00FC01E928AA
:1001A80021307A020318E5281108F6007A08203E63
:1001B80086008701760881000130F6007608FA0784
:1001C800E9281108F6007608F700951FF02895131E
:1001D8001108F6007608F7001516200091118B1506
:1001E800210011142000921D042924001108F60092
:1001F8007608F700200092112400151620009111AE
:100208007E1009008131082984310A248131FB00DC
:1002180084310B248131FC0084310C248131CE00DF
:10022800F701F801F901FA01203084000030850057
:100238002530843104247E10200081312329F030B8
:100248002100990083311423813121009513203036
:100258008C0023008C01FF3021008D0023008D01CC
:10026800203024008C00FF308D0020008C018D018F
:1002780022009D1580302400940036309500161415
:100288001716971517152000213524009200200015
:10029800911192112100921591150B178331F823B2
:1002A80081310030C500C60083319D238131ED3096
:1002B8002700940048308B0034302000980021003B
:1002C80011142000181403302000CB000830CA0095
:1002D8007730890B6D29CA0B6D29CB0B6D2922004C
:1002E8000C1713302000CB004430CA004430890B6F
:1002F8007B29CA0B7B29CB0B7B29000022000C131E
:100308008B1720002408031DA1294E03031DA129D2
:100318000130CA004A08FB0015302000CA00C63068
:10032800890B9429CA0B9429000000302000C500CD
:10033800C60083319D238131B2290030C5000230C7
:10034800C60083319D23813115302000CA00C63094
:10035800890BAC29CA0BAC290000FB012000230340
:100368000319010020002203031DF1292108CA00F6
:100378004A08C500003083317523813120002408E4
:10038800CA004A08C5000130833175238131200035
:100398002508CA004A08C500023083317523813117
:1003A80020002608CA004A08C50003308331752397
:1003B800813120002708CA004A08C500043083316B
:1003C8007523813168302000CA00E430890BEA299E
:1003D800CA0BEA2900002000A2017903031D822A22
:1003E80015302000CB004B30CA00BE30890BFA29EB
:1003F800CA0BFA29CB0BFA29000020000D1C0E2A83
:1004080068302000CA00E430890B082ACA0B082A81
:100418000000012A0D1D8D19042A8D1E0D1B042AAA
:100428008D1B042A05302000CB000F30CA00F130A4
:10043800890B1C2ACA0B1C2ACB0B1C2A200044033C
:10044800031D462A4303031D462A0130A90700302D
:10045800AA3D0030AB3D0030AC3D2D082902CA0052
:100468002E082A3BCB002F082B3BCC0030082C3B16
:10047800CD004D08B4004C08B3004B08B2004A0840
:10048800B100682A4403031D682A4308031D682A2B
:100498000130B5070030B63D0030B73D0030B83DFB
:1004A80039083502CA003A08363BCB003B08373BCF
:1004B800CC003C08383BCD004D08C0004C08BF00BC
:1004C8004B08BE004A08BD0020000D1C752A683084
:1004D8002000CA00E430890B6F2ACA0B6F2A00007B
:1004E800682A0D1D8D196B2A8D1E0D1B6B2A8D1BFD
:1004F8006B2AF901C401C301270096017803031D83
:10050800852915302000CB004B30CA00BE30890B3E
:100518008B2ACA0B8B2ACB0B8B2A000020000D1CC0
:100528009F2A68302000CA00E430890B992ACA0B38
:10053800992A0000922A0D1D8D19952A8D1E0D1BD2
:10054800952A8D1B952A05302000CB000F30CA0054
:10055800F130890BAD2ACA0BAD2ACB0BAD2A20008E
:100568004403031DD72A4303031DD72A0130AD07CF
:100578000030AE3D0030AF3D0030B03D2D082902BF
:10058800CA002E082A3BCB002F082B3BCC00300892
:100598002C3BCD004D08B4004C08B3004B08B2000A
:1005A8004A08B100F92A4403031DF92A4308031D28
:1005B800F92A0130B9070030BA3D0030BB3D0030A0
:1005C800BC3D39083502CA003A08363BCB003B0827
:1005D800373BCC003C08383BCD004D08C0004C08E8
:1005E800BF004B08BE004A08BD0020000D1C062BAA
:1005F80068302000CA00E430890B002BCA0B002B9E
:100608000000F92A0D1D8D19FC2A8D1E0D1BFC2AD0
:100618008D1BFC2AF801C401C30127009601852916
:1006280003302000C9004908A00000308331C223EC
:1006380083312000C9004908A100A201A3010130AB
:100648008331C22383312000C9004908A400023045
:100658008331C22383312000C9004908A500033033
:100668008331C22383312000C9004908A600043021
:100678008331C22383312000C9004908A700A8019B
:100688000030AC000030AB000030AA000030A900F8
:100698000030B0000030AF000030AE000030AD00D8
:1006A8000030B4000030B3000030B2000030B100B8
:1006B8000030AC000030AB000030AA000030A900C8
:1006C8000030B0000030AF000030AE000030AD00A8
:1006D8000030B4000030B3000030B2000030B10088
:1006E8000800C80023009518762B20004808C6008B
:1006F800C701460823009100200047082300920004
:1007080020004508230093003F302000C60046081B
:100718002300950503108B1B03148B1315155530F7
:100728009600AA30960095141511031C08008B1723
:1007380008004608803AC70084304702031DA62BEC
:10074800003045020318080020004608C800450884
:10075800C700C836C70CC836C70C4708250098001C
:1007680020004508C7000330C735FF3E031DB82BDE
:10077800473530390C3825009A000800C800C52BC9
:100788002000640023009518C42B20004808C500E9
:10079800C601450823009100200046082300920066
:1007A8003F302000C700470823009505151413089B
:1007B8000800F401F501701CE52B7208F4077308B2
:1007C800F53D0130F235F30D890BE62B0130F1369A
:1007D800F00C890BEB2B70087104031DDF2B7508D7
:1007E800F1007408F0000800D33020009B000C30A2
:1007F80025009A0098012000911004309C00080000
:10080800640080010131890B052C00340134013466
:040818000134213452
:020000040001F9
:04000E00DCCFFFDF65
:10E000003F0000000100B8000B00FF00FF00FF0010
:00000001FF
