:020000040000FA
:0400000081314D29D4
:100008007E1480318B1C42280B1220000D184028CA
:10001800F53086002230870043310108031D30285F
:10002800FA3086002230870001308100F5308600E2
:100038002230870053318101423086002330870007
:1000480081017C308600233087008101B63086002C
:100058002330870081014028F53086002230870050
:1000680046310130810741310030813D4131003056
:10007800813D41310030813D8B100B160B1CCF2880
:100088008B112700161D662820000D196628F530EB
:1000980086002230870045318101083086002330F0
:1000A80087000130810042308600233087008101BB
:1000B8007C308600233087008101B63086002330EB
:1000C800870081012700961D882820008D1988281F
:1000D800F53086002230870045318101F5308600F1
:1000E8002230870053318101423086002330870057
:1000F800013081007C308600233087008101B630D2
:1001080086002330870081012700161FAA282000B7
:100118000D1BAA28F5308600223087004531810161
:10012800F530860022308700533181014230860045
:100138002330870081017C3086002330870001301E
:100148008100B63086002330870081012700961F82
:10015800CC2820008D1BCC28F53086002230870063
:1001680045318101F5308600223087005331810105
:10017800423086002330870081017C30860023309E
:1001880087008101B6308600233087000130810066
:10019800270096018B152000111CD928181064001F
:1001A8002000ED01ED0A11101814911D3D298B1145
:1001B800210011102400141DFF28941AF0287A0831
:1001C800F53E860087012230873D01089100013005
:1001D800F0007008FA071516941EFF287A08F53EF5
:1001E800860087012230873D010891000130F00028
:1001F8007008FA07151614193829941A0C290130B1
:10020800F0007008FB001108F0007008F9001516DE
:10021800941E38297B08031917291108F000700863
:10022800FA00FB013029FB307A0203182C297A08DE
:10023800F53EF000F1012230F13D700886007108AA
:100248008700110881000130F0007008FA07302992
:100258001108F0007008F900951F37299513110847
:10026800F0007008F9001516200091118B15210077
:1002780011142000921D4B2924001108F000700869
:10028800F9002000921124001516200091117E100B
:10029800090081314F298731FA278131FB00F53078
:1002A800840022308500FB30FE000030FF008E31D4
:1002B800D726F901FA01E701E801E901EA01EB01B2
:1002C800EC01ED01EE012100A401A5017E10200042
:1002D80081316E29F030210099008631D226813192
:1002E80021009517F0309E002F308C000F3023002E
:1002F8008C00DF3021008D0023008D012030240088
:100308008C00CD308D0022008C018D0180302400BE
:100318009400363095001614171697151715803067
:1003280092002000911192112100921591150B173E
:100338001513CC302700950058308B00343020003E
:10034800980021001114200018148B176400F53050
:100358008600223087004131010303190100F5307E
:1003680086002230870042310103031D3E2A210006
:10037800A0012008143EF53E860087012230873D03
:1003880001082000DD005D08F200210020088F31FF
:100398000127813101302000DD005D082100A00720
:1003A8003A302002031CBD29A10121084E3EF53E2A
:1003B800860087012230873D01082000DD005D08A6
:1003C800F200210021083A3E8F31012781310130A6
:1003D8002000DD005D082100A1073A302102031C3E
:1003E800D929A2012208883EF53E860087012230DD
:1003F800873D01082000DD005D08F2002100220889
:10040800733E8F310127813101302000DD005D0806
:100418002100A2073A302202031CF629A30123086F
:10042800C23EF53E860087012230873D0108200044
:10043800DD005D08F20021002308AC3E8F31012762
:10044800813101302000DD005D082100A3073A302A
:100458002302031C132AF53086002230870042311C
:10046800810168302000DD00E430890B392ADD0B7A
:10047800392A0000F5308600223087004331010315
:10048800031DB82CFF308600223087000030C03FA3
:10049800C13FC23FC33FFB30860022308700003097
:1004A800C03FC13FC23FC33FF530860022308700BE
:1004B80045318101F53086002230870053318101B2
:1004C800423086002330870081017C30860023304B
:1004D80087008101B63086002330870081019F2C78
:1004E80022000C16F5308600223087004A31013090
:1004F800810741310030813D41310030813D41313A
:100508000030813D0B302000DD006230890B8A2AE3
:10051800DD0B8A2A00006400F5308600223087004F
:100528004E310103031DA02AF530860022308700D2
:10053800533101030319FB2A2E308600233087002C
:10054800403F2000DD00413FDE00423FDF00433FE7
:10055800E000F5308600223087004A31403FE10054
:10056800413FE200423FE300433FE4006008640289
:10057800031DC82A5F086302031DC82A5E086202B9
:10058800031DC82A5D0861020318FB2A3230860061
:1005980023308700403FDD00413FDE00423FDF005F
:1005A800433FE000F5308600223087004631403F67
:1005B800E100413FE200423FE300433FE4006008BE
:1005C8006402031DF12A5F086302031DF12A5E0815
:1005D8006202031DF12A5D0861020318FB2AF53047
:1005E800860022308700433101030319742A220050
:1005F8000C12982C22000C17F53086002230870048
:100608004A310130810741310030813D41310030AC
:10061800813D41310030813D0B302000DD006230EA
:10062800890B142BDD0B142B00006400F5308600B9
:10063800223087004E310103031D292B42308600EA
:100648002330870001030319842B68308600233088
:100658008700403F2000DD00413FDE00423FDF00D1
:10066800433FE000F5308600223087004A31403FA2
:10067800E100413FE200423FE300433FE4006008FD
:100688006402031D512B5F086302031D512B5E0892
:100698006202031D512B5D0861020318842B6C3024
:1006A800860023308700403FDD00413FDE00423FA7
:1006B800DF00433FE000F5308600223087004631F6
:1006C800403FE100413FE200423FE300433FE40096
:1006D80060086402031D7A2B5F086302031D7A2BEE
:1006E8005E086202031D7A2B5D0861020318842BE1
:1006F800F530860022308700433101030319FE2AB2
:1007080022000C13982C22008C17F530860022301A
:1007180087004A310130810741310030813D413144
:100728000030813D41310030813D0B302000DD003B
:100738006230890B9D2BDD0B9D2B00006400F5308A
:100748008600223087004E310103031DB22B7C3016
:10075800860023308700010303190D2CA230860080
:1007680023308700403F2000DD00413FDE00423F4C
:10077800DF00433FE000F5308600223087004A3131
:10078800403FE100413FE200423FE300433FE400D5
:1007980060086402031DDA2B5F086302031DDA2B6D
:1007A8005E086202031DDA2B5D08610203180D2C36
:1007B800A630860023308700403FDD00413FDE0041
:1007C800423FDF00433FE000F530860022308700DB
:1007D8004631403FE100413FE200423FE300433FF2
:1007E800E40060086402031D032C5F086302031D14
:1007F800032C5E086202031D032C5D0861020318C6
:100808000D2CF5308600223087004331010303198F
:10081800872B22008C13982C22008D16F530860029
:10082800223087004A310130810741310030813D53
:1008380041310030813D41310030813D0B30200095
:10084800DD006230890B262CDD0B262C00006400AD
:10085800F5308600223087004E310103031D3B2C02
:10086800B63086002330870001030319962CDC304C
:10087800860023308700403F2000DD00413FDE0036
:10088800423FDF00433FE000F5308600223087001A
:100898004A31403FE100413FE200423FE300433F2D
:1008A800E40060086402031D632C5F086302031DF3
:1008B800632C5E086202031D632C5D086102031845
:1008C800962CE030860023308700403FDD00413F12
:1008D800DE00423FDF00433FE000F5308600223073
:1008E80087004631403FE100413FE200423FE300DC
:1008F800433FE40060086402031D8C2C5F08630218
:10090800031D8C2C5E086202031D8C2C5D0861029D
:100918000318962CF53086002230870043310103F6
:100928000319102C22008D12F53086002230870022
:1009380043318101B22CF5308600223087004431E2
:100948000108013A0319A02A033A0319292B013A8D
:100958000319B22B073A03193B2C982CF530860063
:100968002230870044318101F5308600223087002B
:100978004F310103031DC32C22000C16C52C220085
:100988000C12F53086002230870050310103031D18
:10099800CF2C0C17D02C0C13F53086002230870092
:1009A80051310103031DDA2C8C17DB2C8C13F53025
:1009B80086002230870052310103031DE52C8D1675
:1009C800E62C8D1220006D03031DAA290A306E0241
:1009D8000318172D00308E31E3268131720820006C
:1009E800EB077308EC3D01308E31E3268131720844
:1009F8002000E9077308EA3D02308E31E326813191
:100A080072082000E7077308E83D03308E31E326BB
:100A180081317208A4077308A53D01302000DD006C
:100A28005D08EE07AA29F5308600223087004E318E
:100A38000103031D6D2D0A30F2000030F3006C082D
:100A4800F5006B08F4008731B02781313A30860011
:100A5800233087007208C03F7308C13F0A30F20094
:100A68000030F3006A08F5006908F4008731B02700
:100A7800813174308600233087007208C03F7308C4
:100A8800C13F0A30F2000030F3006808F50067083B
:100A9800F4008731B0278131AE30860023308700DB
:100AA8007208C03F7308C13F0A30F2000030F300FB
:100AB80021002508F5002408F4008731B02781318A
:100AC800E8308600233087007208C03F7308C13FB2
:100AD800C62E0A30F2000030F3006C08F5006B08EF
:100AE800F4008731B02781317208DD007308DE0019
:100AF800DF01E0016008B8005F08B7005E08B600D3
:100B08005D08B5003E30860023308700403FE10095
:100B1800413FE2006108B9006208BA00BB01BC01AC
:100B28004030860023308700403FE300413FE40027
:100B38006308BD006408BE00BF01C0010030C400E6
:100B48000030C3000030C2000030C1003C308600D5
:100B580023308700403FE500413FE6006508C500B7
:100B68006608C600C701C8018F31A22781313A3013
:100B78008600233087003508C03F3608C13F0A3059
:100B8800F2000030F3006A08F5006908F4008731C4
:100B9800B02781317208DD007308DE00DF01E00153
:100BA8006008B8005F08B7005E08B6005D08B500C9
:100BB8007830860023308700403FE100413FE20063
:100BC8006108B9006208BA00BB01BC017A3086002E
:100BD80023308700403FE300413FE4006308BD0045
:100BE8006408BE00BF01C0010030C4000030C3006B
:100BF8000030C2000030C100763086002330870004
:100C0800403FE500413FE6006508C5006608C600AC
:100C1800C701C8018F31A227813174308600233083
:100C280087003508C03F3608C13F0A30F20000305F
:100C3800F3006808F5006708F4008731B0278131B0
:100C48007208DD007308DE00DF01E0016008B8000B
:100C58005F08B7005E08B6005D08B500B2308600D0
:100C680023308700403FE100413FE2006108B900BE
:100C78006208BA00BB01BC01B4308600233087008B
:100C8800403FE300413FE4006308BD006408BE0044
:100C9800BF01C0010030C4000030C3000030C200F2
:100CA8000030C100B030860023308700403FE500A7
:100CB800413FE6006508C5006608C600C701C801CF
:100CC8008F31A2278131AE30860023308700350866
:100CD800C03F3608C13F0A30F2000030F30021005F
:100CE8002508F5002408F4008731B02781317208FF
:100CF800DD007308DE00DF01E0016008B8005F086E
:100D0800B7005E08B6005D08B500EC3086002330F9
:100D18008700403FE100413FE2006108B9006208F6
:100D2800BA00BB01BC01EE30860023308700403F8B
:100D3800E300413FE4006308BD006408BE00BF0152
:100D4800C0010030C4000030C3000030C2000030D1
:100D5800C100EA30860023308700403FE500413F6C
:100D6800E6006508C5006608C600C701C8018F31DE
:100D7800A2278131E8308600233087003508C03F3C
:100D88003608C13FEB01EC01E901EA01E701E8019E
:100D98002100A401A5012000EE01AA29F530860052
:100DA800223087000330C03FF530860022308700AC
:100DB80041318101F53086002230870042318101BE
:100DC800F53086002230870043318101F5308600F6
:100DD8002230870044318101F530860022308700B7
:100DE80045318101FB308600223087000030C03F4A
:100DF800C13FC23FC33FFF3086002230870000302A
:100E0800C03FC13FC23FC33FF53086002230870054
:100E18004E318101F5308600223087004F31810143
:100E2800F53086002230870050318101F530860088
:100E38002230870051318101F53086002230870049
:100E480052318101F530860022308700533181010B
:100E58002000A00120088731E5278631F600200010
:100E68002008143EF53EF700F8012230F83D7708D7
:100E7800860078088700760881000130F600760839
:100E8800A0073A302002031C2E2F42308600233060
:100E980087008101A10121083A3E8731E527863183
:100EA800F600200021084E3EF53EF700F8012230FA
:100EB800F83D7708860078088700760881000130B9
:100EC800F6007608A1073A302102031C4F2F7C3028
:100ED8008600233087008101A2012208733E8731F2
:100EE800E5278631F60020002208883EF53EF70007
:100EF800F8012230F83D77088600780887007608E0
:100F080081000130F6007608A2073A302202031C5D
:100F1800712FB6308600233087008101A301230892
:100F2800AC3E8731E5278631F60020002308C23E13
:100F3800F53EF700F8012230F83D7708860078087A
:100F48008700760881000130F6007608A3073A305A
:100F5800230203180800932F2000A101A2017208A0
:100F680073040319E02FA001A00AF31BC52F013059
:100F7800F235F30D890BBC2F0130F6007608A00777
:100F8800B92F0130A135A20D890BC62F7308750240
:100F9800031DD02F72087402031CD72F7208F402A5
:100FA8007308F53B21140130F336F20C890BD82F66
:100FB8000130A002031DC52F2208F3002108F2000A
:100FC8000800F500E82F2000640023009518E72F9B
:100FD8007508F200F30172089100730892003F301F
:0E0FE800F40074089505151413080800013470
:101DAE006400800101310130FE020030FF3B7F08EC
:101DBE007E0403190034D82EF5007508F4000130A6
:101DCE00F435FF3E031DE72E743521009D001D14D2
:101DDE000B30F4006230890BF22EF40BF22E00322F
:101DEE0021009D149D18F92E1D101C08F3001B08D0
:101DFE00F2000800F50023009518022F7508F30075
:101E0E00F4017308910074089200720893003F3039
:101E1E00F3007308950503108B1B03148B13151514
:101E2E0055309600AA30960095141511031C080023
:101E3E008B1708000030F5000030F4000030F3007E
:101E4E000030F200201C332F2408F2072508F33D42
:101E5E002608F43D2708F53D0130A435A50DA60D45
:101E6E00A70D890B342F0130A336A20CA10CA00CA8
:101E7E00890B3B2F2308220421042004031D292F44
:101E8E007508A3007408A2007308A1007208A000D0
:101E9E0008000030B3000030B2000030B100003056
:101EAE00B0002B082A04290428040319992FB40121
:101EBE00B40AAB1B6E2F0130A835A90DAA0DAB0DC0
:101ECE00890B632F0130F6007608B407602F0130BE
:101EDE00B035B10DB20DB30D890B6F2F2B082F023C
:101EEE00031D832F2A082E02031D832F29082D027E
:101EFE00031D832F28082C02031C8E2F2808AC02EA
:101F0E002908AD3B2A08AE3B2B08AF3B30140130FD
:101F1E00AB36AA0CA90CA80C890B8F2F0130B4027A
:101F2E00031D6E2F3308AB003208AA003108A9003A
:101F3E003008A800080039083D02C9003A083E3BA7
:101F4E00CA003B083F3BCB003C08403BCC004C0852
:101F5E00AB004B08AA004A08A9004908A800390896
:101F6E003502CD003A08363BCE003B08373BCF005A
:101F7E003C08383BD0005008A3004F08A2004E0882
:101F8E00A1004D08A00041084502D1004208463B81
:101F9E00D2004308473BD3004408483BD4005408C2
:101FAE00A7005308A6005208A5005108A4008F31BF
:101FBE0021278F312308AF002208AE002108AD0083
:101FCE002008AC008F31502728084107D50029087A
:101FDE00423DD6002A08433DD7002B08443DD80089
:101FEE005808B8005708B7005608B6005508B5008F
:041FFE000800FB34A8
:020000040001F9
:04000E00DCCFFFDF65
:10E000000000000000000000000000000000000010
:10E010000000000000000000000000000000000000
:10E0200000000000000000000000000000000000F0
:10E0300000000000000000000000000000000000E0
:10E0400000000000000000000000000000000000D0
:10E0500000000000000000000000000000000000C0
:10E0600000000000000000000000000000000000B0
:10E0700000000000000000000000000000000000A0
:10E080000000000000000000000000000000000090
:10E090000000000000000000000000000000000080
:10E0A0000000000000000000000000000000000070
:10E0B0000000000000000000000000000000000060
:10E0C0000000000000000000000000000000000050
:10E0D0000000000000000000000000000000000040
:10E0E0000000000000000000000000000000000030
:10E0F0000000000000000000000000000000000020
:10E10000000000000000000000000000000000000F
:10E1100000000000000000000000000000000000FF
:10E1200000000000000000000000000000000000EF
:10E1300000000000000000000000000000000000DF
:10E1400000000000000000000000000000000000CF
:10E1500000000000000000000000000000000000BF
:10E1600000000000000000000000000000000000AF
:10E17000000000000000000000000000000000009F
:10E18000000000000000000000000000000000008F
:10E19000000000000000000000000000000000007F
:10E1A000000000000000000000000000000000006F
:10E1B000000000000000000000000000000000005F
:10E1C000000000000000000000000000000000004F
:00000001FF
