:020000040000FA
:02000000BB281B
:100008007E1480310B1C12282700131E12288B1116
:100018002000B201B20A270013128B152000111C10
:1000280044288B111810320303190C1E2A2801309A
:10003800F0007008B00703303002031C2C28B00110
:10004800B2010130F0007008B1072C28B201B001EC
:1000580003303102031C41280130F0007008A2006F
:100068000330203E86008701403FA700413FA8009B
:10007800423FA900433FAA00B1018B151110181483
:10008800911DAB288B11210011102400141D662826
:10009800941A59287908203E8600870101089100A2
:1000A8000130F0007008F9071516941E66287908C3
:1000B800203E86008701010891000130F000700899
:1000C800F90715161419A628941A75282000B701DF
:1000D800B70A24001108F00070082000AF002400BF
:1000E8001516941EA6282000370803198328240013
:1000F8001108F0007008F9002000B7019B280F30A4
:1001080079020318952824001108F0007908203E88
:1001180086008701700881000130F0007008F90737
:100128009B2824001108F00070082000AF0024006C
:10013800951FA42895131108F00070082000AF003F
:1001480024001516200091118B1521001114200090
:10015800921DB92824001108F00070082000AF0093
:10016800921124001516200091117E100900BC2858
:100178008821B700F9012030840000308500133051
:1001880082217E102000C828F030210099003A21F1
:100198001E3021008C0023008C011E3024008C00AE
:1001A8002100951722001D140C10803024009400A3
:1001B8003630950016141716971517157A309200D1
:1001C8002000911192112100921591150B1776219B
:1001D8000030F100F20058212700111648308B003A
:1001E80034302000980021001114200018148B17B7
:1001F8006400200021030319010020002E08F200EA
:100208002D08F100582120002B082C04031914296B
:1002180022000C1401302000AB020030AC3B162940
:1002280022000C1020002203031D30290130B300E6
:100238000030B4000030B5000030B6003308A70223
:100248003408A83B3508A93B3608AA3B2A082904E4
:10025800280427040319A2010B302000B3006230E0
:10026800890B3429B30B34290000FC280130F10034
:1002780071082000A0000030A6000030A5004E3014
:10028800A4002030A3000030AC00FA30AB000030EE
:10029800AA000030A9000030A8000030A700A20181
:1002A800AD01AE01A101080004307202003003194B
:1002B8007102031808007208F4007108F300F4369C
:1002C800F30CF436F30C7308250091007108F30061
:1002D8000330F335FF3E031D6D29733530390C3873
:1002E80093000800FF3020009B000C30250093008D
:1002F80091012000911004309C00080064008001E6
:0C0308000131890B8329003401340F34CB
:020000040001F9
:04000E00DCCFFFDF65
:00000001FF
