:020000040000FA
:0400000080317E28A5
:100008007E1480312000911D6E288B112100111063
:100018002400141D2928941A1C287A08A03E86005A
:100028008701010891000130F0007008FA071516E1
:10003800941E29287A08A03E8600870101089100AD
:100048000130F0007008FA07151614196928941A77
:1000580038282000EF01EF0A24001108F00070088A
:100068002000EE0024001516941E692820006F0851
:100078000319462824001108F0007008FA0020002F
:10008800EF015E2821307A0203185828240011084D
:10009800F0007A08A03E86008701700881000130D0
:1000A800F0007008FA075E2824001108F0007008B4
:1000B8002000EE002400951F672895131108F00012
:1000C80070082000EE0024001516200091118B15F1
:1000D800210011142000921D7C2824001108F00032
:1000E80070082000EE0092112400151620009111CE
:1000F8007E100900803180288731FF278031EF008A
:10010800FA01EE01A03084000030850029308831E2
:100118007F20803120308400013085001A308831FA
:100128007F207E10200080319928F030210099002E
:1001380089315B2180311F308C00113023008C0005
:100148000E3024008C0021009513F0309E00803082
:1001580024009400363095001614171697151715B5
:100168007C30920020009111921121009215911576
:100178000B1740308B008B1722008C16640021006F
:1001880021030319010021002203031D2F2923083D
:10019800E2006208F10000308731DF27803121005A
:1001A8002408E2006208F10001308731DF2780313E
:1001B80021002508E2006208F10002308731DF27BC
:1001C800803121002608E2006208F10003308731FF
:1001D800DF27803121002708E2006208F10004309F
:1001E8008731DF27803121002808E2006208F1000A
:1001F80005308731DF27803121002908E2006208B5
:10020800F10006308731DF27803121002A08E2001B
:100218006208F10007308731DF27803121002B0881
:10022800E2006208F10008308731DF2780312100C1
:100238002C08E2006208F10009308731DF2780319D
:100248002100A20168302100E200E430890B2A294C
:10025800E20B2A29000000302200AF000030AE0077
:100268000030AD000030AC000030AB000030AA0018
:100278000030A9000030A8000030A7000030A60018
:100288000030A5000030A4002100EE01EF016F0846
:10029800803AE2002C08803A6202031D55292B0897
:1002A8006E020318CE2B640000308831A320803101
:1002B8007108E2007208E300E401E5016508F8004E
:1002C8006408F7006308F6006208F5000030893119
:1002D800DA21803178082200B7007708B60076085E
:1002E800B5007508B40003308831A3208031710847
:1002F800E2007208E300E401E5016508F80064081B
:10030800F7006308F6006208F50000308931DA2149
:10031800803178082200B3007708B2007608B1006F
:100328007508B000BF302000E100D330E000333062
:10033800DF003330DE004430C7008030C6000030B4
:10034800C5000030C4004030AD005330AC0033303D
:10035800AB003330AA00220037082000B100220089
:1003680036082000B000220035082000AF00220027
:1003780034082000AE008D31E82580312D08CB00EF
:100388002C08CA002B08C9002A08C8008A31702224
:1003980080314708E5004608E4004508E3004408C2
:1003A800E200853172258031200061082100C800F3
:1003B800200060082100C70020005F082100C60057
:1003C80020005E082100C5002308F5002408F60077
:1003D800890D893B8909F700F80001308931DA2154
:1003E80080317808AD007708AC007608AB00750856
:1003F800AA0021002508F5002608F600890D893B8A
:100408008909F700F80001308931DA21803178084C
:10041800C7007708C6007608C5007508C400210023
:1004280048082000CB00210047082000CA0021000E
:1004380046082000C900210045082000C8008A316C
:10044800702280314708B1004608B0004508AF0067
:100458004408AE008D31E82580312D082100C80000
:1004680020002C082100C70020002B082100C6000E
:1004780020002A082100C50048082000B1002100FA
:1004880047082000B000210046082000AF002100E6
:1004980045082000AE00210048082000AD002100DA
:1004A80047082000AC00210046082000AB002100CE
:1004B80045082000AA008D31E82580312D08C700A5
:1004C8002C08C6002B08C5002A08C4008731B727A6
:1004D80080314708E1004608E0004508DF0044088D
:1004E800DE0022002F082000E50022002E08200050
:1004F800E40022002D082000E30022002C08200040
:10050800E200853172258031200061082200AF00A9
:10051800200060082200AE0020005F082200AD0025
:1005280020005E082200AC00BF302000E100D3307C
:10053800E0003330DF003330DE004430C700803065
:10054800C6000030C5000030C4004030AD00533054
:10055800AC003330AB003330AA002200330820004F
:10056800B100220032082000B0002200310820002B
:10057800AF00220030082000AE008D31E825803120
:100588002D08CB002C08CA002B08C9002A08C8006F
:100598008A31702280314708E5004608E4004508A2
:1005A800E3004408E20085317225803120006108AB
:1005B8002100C400200060082100C30020005F085B
:1005C8002100C20020005E082100C100440820006C
:1005D800AD00210043082000AC00210042082000A3
:1005E800AB00210041082000AA000730A03E860089
:1005F8008701403FAE00413FAF00423FB000433F5C
:10060800B1008D31E82580312D082100C40020007B
:100618002C082100C30020002B082100C200200064
:100628002A082100C10044082000B1002100430825
:100638002000B000210042082000AF00210041083E
:100648002000AE00210044082000AD00210043082E
:100658002000AC00210042082000AB002100410826
:100668002000AA008D31E82580312D08C7002C080C
:10067800C6002B08C5002A08C4008731B727803177
:100688004708E1004608E0004508DF004408DE00AE
:1006980022002B082000E50022002A082000E400A0
:1006A800220029082000E300220028082000E20098
:1006B800853172258031200061082200AB002000BE
:1006C80060082200AA0020005F082200A90020007C
:1006D8005E082200A800210044082000B100210083
:1006E80043082000B000210042082000AF0021008C
:1006F80041082000AE00210048082000AD0021007C
:1007080047082000AC00210046082000AB0021006B
:1007180045082000AA008D31E82580312D08C70042
:100728002C08C6002B08C5002A08C4008731B72743
:1007380080314708E1004608E0004508DF0044082A
:10074800DE00220027082000E500220026082000FD
:10075800E400220025082000E300220024082000ED
:10076800E200853172258031200061082200A7004F
:10077800200060082200A60020005F082200A500D3
:1007880020005E082200A40001302100EE0700309E
:10079800EF3D4B2921002B08F5002C08F600890DA8
:1007A800893B8909F700F80001308931DA21803165
:1007B8007808C7007708C6007608C5007508C40021
:1007C80022002F082000CB0022002E082000CA009B
:1007D80022002D082000C90022002C082000C80093
:1007E8008A31702280314708E1004608E000450858
:1007F800DF004408DE008B31E923803161082100E5
:10080800B000200060082100AF0020005F08210030
:10081800AE0020005E082100AD002B08F5002C0872
:10082800F600890D893B8909F700F8000130893104
:10083800DA2180317808C7007708C6007608C50035
:100848007508C40022002B082000CB0022002A08CB
:100858002000CA00220029082000C9002200280818
:100868002000C8008A31702280314708E10046081C
:10087800E0004508DF004408DE008B31E9238031C1
:1008880061082100B400200060082100B3002000A6
:100898005F082100B20020005E082100B1002B088B
:1008A800F5002C08F600890D893B8909F700F80046
:1008B80001308931DA2180317808C7007708C6000D
:1008C8007608C5007508C400220027082000CB0060
:1008D800220026082000CA00220025082000C9009E
:1008E800220024082000C8008A317022803147087D
:1008F8002100E900200046082100E8002000450802
:100908002100E700200044082100E6000D30A03E49
:1009180086008701403F2000AA00413FAB00423FCC
:10092800AC00433FAD001130A03E86008701403F38
:10093800AE00413FAF00423FB000433FB1008D31B0
:10094800E82580312D08C7002C08C6002B08C500F3
:100958002A08C400210069082000CB00210068088B
:100968002000CA00210067082000C900210066088D
:100978002000C8008A317022803147082100C00059
:10098800200046082100BF00200045082100BE00C5
:10099800200044082100BD000D30A03E86008701DC
:1009A800403F2000AA00413FAB00423FAC00433F1C
:1009B800AD001130A03E86008701403FAE00413FA8
:1009C800AF00423FB000433FB1008D31E825803190
:1009D8002D082100ED0020002C082100EC0020004B
:1009E8002B082100EB0020002A082100EA001D3016
:1009F800A03E86008701403F2000AA00413FAB008F
:100A0800423FAC00433FAD0021006D082000B1001B
:100A180021006C082000B00021006B082000AF0006
:100A280021006A082000AE008D31E82580312D08AC
:100A38002100B80020002C082100B70020002B0856
:100A48002100B60020002A082100B500403020000F
:100A5800C7000030C6000030C5000030C40019309F
:100A6800A03E86008701403FDE00413FDF00423F55
:100A7800E000433FE1001530A03E86008701403F7B
:100A8800E200413FE300423FE400433FE500853197
:100A98007225803120006108CB006008CA005F0819
:100AA800C9005E08C8008A317022803147082100D9
:100AB800BC00200046082100BB002000450821009A
:100AC800BA00200044082100B900031022008C1E3F
:100AD80003140318C02822008C12C2286108803928
:100AE800E60066082100C90020006135E6006608B6
:100AF8002100CB002000E01F832D21004B14210092
:100B08004B080319972D4B0A031D932D0030200025
:100B1800E1000030E0000030DF000030DE0020009F
:100B2800E017E101A02D00302000E1000030E000D6
:100B38000030DF000030DE0065088039E600660816
:100B48002100CA004A084906031D491720006535D7
:100B5800E60066082100CA002000E41FB52D210028
:100B68004A1421004A080319C92D4A0A031DC52D34
:100B780000302000E5000030E4000030E3000030E1
:100B8800E2002000E417E501D22D00302000E50046
:100B98000030E4000030E3000030E20021004B08A0
:100BA8004A020318322E491FDF2D80302000E6004C
:100BB80066082100C9064B082000E60066082100E7
:100BC800CC004A082000E60066082100CB004C084B
:100BD8002000E60066082100CA0020005E08E60042
:100BE80066082100CC0020006208E6006608DE00E6
:100BF80021004C082000E6006608E2005F08E600D5
:100C080066082100CC0020006308E6006608DF00C3
:100C180021004C082000E6006608E3006008E600B2
:100C280066082100CC0020006408E6006608E000A1
:100C380021004C082000E6006608E4006108E60090
:100C480066082100CC0020006508E6006608E1007F
:100C580021004C082000E6006608E5002100CC01D0
:100C68004A082000E600E7016708E90021004B0870
:100C780020006602E800031CE9036908803AEA00DC
:100C880080306A02031D4A2E1A306802031C8A2E1D
:100C98002000610860045F045E040319552E0130CA
:100CA800562E0030E60066082100CC0000302000F7
:100CB800E1000030E0000030DF000030DE002100FD
:100CC8004A082000E60066082100CB008F2E4C1C45
:100CD800752E4C3601382000E60066082100CC004D
:100CE800772E0310CC0C20005E1C7C2E2100CC1724
:100CF80001302000E600E137E00CDF0CDE0CE60BEB
:100D08007F2E0130E60066082100CB0721004A0843
:100D18004B02031C6B2E491BCA2E4B08031D9E2E2B
:100D280000302000E1000030E0000030DF0000303B
:100D3800DE00080020006208DE076308DF3D640863
:100D4800E03D6508E13D611C4F2F21004C1CB42E8D
:100D58004C3601382000E60066082100CC00B62E8B
:100D68000310CC0C20005E1CBB2E2100CC170130D8
:100D78002000E600E137E00CDF0CDE0CE60BBE2EAF
:100D88000130E60066082100CB074F2F20006108DC
:100D9800803AE6006508803A6602031DDD2E640885
:100DA8006002031DDD2E63085F02031DDD2E62084D
:100DB8005E020318172FFF30E600FF30E700FF3010
:100DC800E800FF30E9005E086202EA005F08633B62
:100DD800EB006008643BEC006108653BED006A08C5
:100DE800E6076B08E73D6C08E83D6D08E93D6908D2
:100DF800E1006808E0006708DF006608DE00803070
:100E0800E60066082100C906CC09CC0A4C08031D77
:100E18001F2F01302000DE070030DF3D0030E03DAD
:100E28000030E13D1F2F6208DE026308DF3B6408E3
:100E3800E03B6508E13B2000610860045F045E0454
:100E4800031D4C2F21004C08031D4C2F003020009F
:100E5800E1000030E0000030DF000030DE00080074
:100E68000130DE35DF0DE00DE10D890B352F210056
:100E7800CC1F402F20005E1421004C1C452F03146A
:100E8800462F0310CC0D4B0803194C2F0130CB0211
:100E98002000E01F342F2100CA01CC1F5D2F4C0811
:100EA8007F39031D5A2F20005E1C5D2F2100CA01C7
:100EB800CA0A21004A0803198E2F01302000DE07D4
:100EC8000030DF3D0030E03D0030E13D611C8E2FF9
:100ED8005E08E6005F08E7006008E8006108E900CE
:100EE8000130EA00E937E80CE70CE60CEA0B762F4C
:100EF8006908E1006808E0006708DF006608DE00AE
:100F080021004B0A03198E2F01302000E6006608E5
:100F18002100CB0721004B0A031D4B08031DA12FFD
:100F280000302000E1000030E0000030DF00003039
:100F3800DE0021004B080319C9014B1CA62F200015
:100F4800E017AB2F7F302000E6006608E00521009F
:100F58004B362000E6006608E1002100C91F0800A2
:100F68002000E11708004708F4004608F300450888
:100F7800F2004408F1000030F8000030F7000030BB
:100F8800F6000030F5008831E020873103180800AA
:100F98004708F4004608F3004508F2004408F10049
:100FA800883185207408C7007308C6007208C50018
:100FB8007108C4000800F40023009518E02F740895
:100FC800F200F3017208910073089200710893000F
:100FD8003F30F2007208950503108B1B03148B1326
:100FE800151555309600AA30960095141511031C56
:0A0FF80008008B17080001342134B3
:1010FE00640080010131890B802800347408730468
:10110E0072047104031908008030F4060800F4001C
:10111E009128210064002300951890287408F1008E
:10112E00F20171089100720892003F30F3007308CB
:10113E009505151413080800F4007408F300013027
:10114E00F335FF3E031DA728733521009D001D14A6
:10115E000B30F3006230890BB228F30BB228003249
:10116E0021009D149D18B9281D101C08F2001B08A3
:10117E00F1000800F900F501F6017108F300F40121
:10118E007308F7007408F800791CD1287708F50762
:10119E007808F63D0130F735F80D890BD22803108B
:1011AE00F90C7908031DCB287608F2007508F100BA
:1011BE00080000307105A00000307205A1008030DB
:1011CE007305A2007F307405A300230822042104B6
:1011DE002004031DFA280030F4000030F300003024
:1011EE00F2000030F10000307505A00000307605E9
:1011FE00A10080307705A2007F307805A300230878
:10120E00220421042004031D14290030F8000030AC
:10121E00F7000030F6000030F500F41F2E290030E4
:10122E00A0000030A1000030A2008030A3007108A1
:10123E00A0027208A13B7308A23B7408A33B2308CB
:10124E00F4002208F3002108F2002008F100F81F34
:10125E0048290030A0000030A1000030A2008030EC
:10126E00A3007508A0027608A13B7708A23B780878
:10127E00A33B2308F8002208F7002108F6002008F7
:10128E00F5008030F4068030F80678087402031DED
:10129E00080077087302031D080076087202031D0A
:1012AE0008007508710208000230F5007508A000EC
:1012BE00A101A201003088318E208931F500750818
:1012CE002100A300013088318E208931F500750888
:1012DE002100A400023088318E208931F500750876
:1012EE002100A500033088318E208931F500750864
:1012FE002100A600043088318E208931F500750852
:10130E002100A700053088318E208931F50075083F
:10131E002100A800063088318E208931F50075082D
:10132E002100A900073088318E208931F50075081B
:10133E002100AA00083088318E208931F500750809
:10134E002100AB00093088318E208931F5007508F7
:10135E002100AC000030B0000030AF000030AE0015
:10136E000030AD000030B4000030B3000030B200E9
:10137E000030B1000030B8000030B7000030B600C9
:10138E000030B5000030BC000030BB000030BA00A9
:10139E000030B9003F30C0008030BF000030BE00CA
:1013AE000030BD0008002000A4002408031DF81F13
:1013BE00F0297509A6007609A7007709A800780913
:1013CE00A900A60A0319A70A0319A80A0319A90A4C
:1013DE00F8297808A9007708A8007608A7007508EC
:1013EE00A6007808770476047504031D072A0030DA
:1013FE00F8000030F7000030F6000030F50008006D
:10140E009630A0002008A500FE30290503192E2ACB
:10141E000130A0002008A5070130A936A80CA70CA2
:10142E00A60C890B142A0B2A0130A0002008A50750
:10143E000130A6070030A73D0030A83D0030A93D81
:10144E000130A936A80CA70CA60C890B282AFF3050
:10145E0029050319402A1B2A02302502031C422AA1
:10146E000130A5020130A635A70DA80DA90D890BD7
:10147E003A2AA81F332A25184C2AFF30A605FF301A
:10148E00A7057F30A805FF30A9050310A50C250878
:10149E00A000A101A201A3011830A035A10DA20D3B
:1014AE00A30D890B542A2008A6042108A70422089C
:1014BE00A8042308A9042408031DF81F672AA917E6
:1014CE002908F8002808F7002708F6002608F50076
:1014DE0008004B088039CC004C08D5004B35CC00A9
:1014EE004C08DC00CA1B5C145C0803198C2A5C0ACD
:1014FE00031D892A0030CB000030CA000030C9001D
:10150E000030C800CA17CB01942A0030CB0000303F
:10151E00CA000030C9000030C80047088039CC002E
:10152E004C08D5064735CC004C08DD00C61B5D14B3
:10153E005D080319B02A5D0A031DAD2A0030C700ED
:10154E000030C6000030C5000030C400C617C70109
:10155E00B82A0030C7000030C6000030C500003089
:10156E00C4004708460445044404031DD72A00302E
:10157E00CB000030CA000030C9000030C8008030F7
:10158E00CA047F30CB045508CC004C08CB044B0862
:10159E00C7004A08C6004908C5004808C40008002C
:1015AE005C08031DE32A0030C7000030C60000307F
:1015BE00C5000030C40008005C08CC00CD014D0809
:1015CE00CF005D084C02CE00031CCF034E087F3EB9
:1015DE00D60000304F3DD7004B08D4004A08D30048
:1015EE004908D2004808D1000030CB000030CA00B4
:1015FE000030C9000030C8000030DB000030DA00D7
:10160E000030D9000030D800DD011A305D02031819
:10161E00482B5D0803192A2B0130D135D20DD30D7D
:10162E00D40D890B142B0130C835C90DCA0DCB0D45
:10163E00890B1B2BDB1B48140130D835D90DDA0D65
:10164E00DB0D890B242B47085402031D382B46084B
:10165E005302031D382B45085202031D382B440834
:10166E005102031C432B5B174408D1024508D23BA1
:10167E004608D33B4708D43B0130CC004C08DD076D
:10168E000C2B5408530452045104031D5814CA1B46
:10169E00652B0130C835C90DCA0DCB0D890B512BE9
:1016AE00DB1B48140130D835D90DDA0DDB0D890B53
:1016BE005A2BFF30D607FF30D73D4E2BDD01DB1FF7
:1016CE007E2BFF305805CC00FF305905CD00FF3082
:1016DE005A05CE007F305B05CF004F084E044D04F7
:1016EE004C04031948187C2B7E2BDD01DD0A5D08A6
:1016FE000319A72B0130C8070030C93D0030CA3D81
:10170E000030CB3D4B1CA72B4808CC004908CD0020
:10171E004A08CE004B08CF000130D000CF37CE0C98
:10172E00CD0CCC0CD00B952B4F08CB004E08CA001D
:10173E004D08C9004C08C8000130D6070030D73D0F
:10174E005708803ACC0080304C02031DB02BFF307E
:10175E005602031CBF2BFF302000D6000030D700EE
:10176E000030CB000030CA000030C9000030C80085
:10177E0020005708803ACC0080304C02031DC92B44
:10178E00013056020318D72B2000D601D7010030A6
:10179E00CB000030CA000030C9000030C800D501AF
:1017AE0020005608CC004C08DC005C1CE02BCA174D
:1017BE00E42B7F30CC004C08CA055C36CC004C08BC
:1017CE00CB00CA2A61088039E20062082100C900F4
:1017DE0020006135E20062082100CF002000E01FEA
:1017EE00FA2B21004F1421004F082000E200E301E4
:1017FE0062082100D400200063082100D500FF30CC
:10180E0020005E052100DA00FF3020005F05210078
:10181E00DB007F30200060052100DC00003020005E
:10182E0061052100DD00540855040319232CDC1733
:10183E00540A5504031D2B2C0030DD000030DC0053
:10184E000030DB000030DA0054085504031D392C3B
:10185E0000302000E1000030E0000030DF000030FA
:10186E00DE000800490803195E2C0030D900403014
:10187E00D8000030D7000030D6008030D804FF30BA
:10188E00D90421302200B8000030B90021005908D7
:10189E002000E100210058082000E0002100570838
:1018AE002000DF00210056082000DE000800540A48
:1018BE005504031D7A2C7F30D9008030D8000030BB
:1018CE00D7000030D60059082000E100210058084A
:1018DE002000E000210057082000DF0021005608FC
:1018EE002000DE0008008130D407FF30D53D5408BB
:1018FE0001392000E20062082100CF000130D53707
:10190E00D40C890B862C7F30D4070030D53D5A3548
:10191E00CB005B0DCC005C0DCD005D0DCE0000301C
:10192E00DD000030DC000030DB000030DA0001307A
:10193E00D3000030D2000030D1000030D0004F086C
:10194E000319B02C0130CB35CC0DCD0DCE0D890B3E
:10195E00AA2CCA0119304A0203182F2D5008DA0496
:10196E005108DB045208DC045308DD045D084E0206
:10197E00031DCB2C5C084D02031DCB2C5B084C02C7
:10198E00031DCB2C5A084B02031CDE2C5A08CB022B
:10199E005B08CC3B5C08CD3B5D08CE3B5008DA07BC
:1019AE005108DB3D5208DC3D5308DD3DFC2C50094F
:1019BE002000E200210051092000E300210052091D
:1019CE002000E400210053092000E50062082100F8
:1019DE00DA05200063082100DB05200064082100E1
:1019EE00DC05200065082100DD0550082000E2001E
:1019FE00210051082000E300210052082000E400DD
:101A0E00210053082000E5000130E536E40CE30C1C
:101A1E00E20C890B0C2D65082100D3002000640810
:101A2E002100D200200063082100D10020006208AE
:101A3E002100D0000130CB35CC0DCD0DCE0D890B54
:101A4E00222D01302000E20062082100CA07B12CCD
:101A5E005A082000E20021005B082000E30021006C
:101A6E005C082000E40021005D082000E500013044
:101A7E00E536E40CE30CE20C890B3F2D65082100E2
:101A8E00DD00200064082100DC0020006308210036
:101A9E00DB00200062082100DA0001305A05D00078
:101AAE0000305B05D10000305C05D20000305D05D2
:101ABE00D3005A082000E20021005B082000E3005A
:101ACE0021005C082000E40021005D082000E500F4
:101ADE000130E536E40CE30CE20C890B702D650841
:101AEE002100DD00200064082100DC0020006308D6
:101AFE002100DB00200062082100DA005008DA071E
:101B0E005108DB3D5208DC3D5308DD3D5D1CB82D10
:101B1E005A082000E20021005B082000E3002100AB
:101B2E005C082000E40021005D082000E500013083
:101B3E00E536E40CE30CE20C890B9F2D65082100C1
:101B4E00DD00200064082100DC0020006308210075
:101B5E00DB00200062082100DA000130D4070030DB
:101B6E00D53DFF305A05D600FF305B05D7007F30DC
:101B7E005C05D80000305D05D90054082000E20055
:101B8E0062082100CF004F18D8174F362000E20010
:101B9E0062082100D9007F302000E2006208210097
:101BAE00D90559082000E100210058082000E00066
:101BBE00210057082000DF00210056082000DE001B
:101BCE0008002D088039B2003208B7002D35B2005A
:101BDE003208BD00AC1B3D143D080319032E3D0A0F
:101BEE00031D012E0030AD000030AC000030AB0004
:101BFE000030AA00AC170B2E0030AD000030AC0048
:101C0E000030AB000030AA0031088039B200320833
:101C1E00B7063135B2003208B800B01B3814380898
:101C2E000319262E380A031D242E0030B100003071
:101C3E00B0000030AF000030AE00B0172E2E0030D6
:101C4E00B1000030B0000030AF000030AE003808F8
:101C5E00031D3D08031D3C2E0030AD000030AC00CE
:101C6E000030AB000030AA0008002A08B20032088B
:101C7E00F10030088831C1208D317208C30071081F
:101C8E00C2004208B200B301B401B5013508BC0070
:101C9E003408BB003308BA003208B9004308B2005A
:101CAE00B301B401B5013508C1003408C0003308D2
:101CBE00BF003208BE002B08B2003208F1002F0818
:101CCE008831C1208D317208C3007108C2004208EC
:101CDE00B200B301B401B5013208B9073308BA3DF9
:101CEE003408BB3D3508BC3D4308B200B301B40116
:101CFE00B5013208BE073308BF3D3408C03D350874
:101D0E00C13D2C08B2003208F1002E088831C120E6
:101D1E008D317208C3007108C2004208B200B301CF
:101D2E00B401B5013208B9073308BA3D3408BB3DDA
:101D3E003508BC3D4308B200B301B401B501320809
:101D4E00BE073308BF3D3408C03D3508C13D0830DD
:101D5E00B935BA0DBB0DBC0D890BAF2E2B08B200D9
:101D6E003208F1002E088831C1208D317208C3006F
:101D7E007108C2004208B9074308BA3D0030BB3DA6
:101D8E00BC3D2A08B2003208F1002F088831C1206C
:101D9E008D317208C3007108C2004208B9074308AA
:101DAE00BA3D0030BB3DBC3D0830B935BA0DBB0D58
:101DBE00BC0D890BDC2E2A08B2003208F1002E0869
:101DCE008831C1208D317208C3007108C2004208EB
:101DDE00B9074308BA3D0030BB3DBC3D2B08B200ED
:101DEE003208F10030088831C1208D317208C300ED
:101DFE007108C2004208BE074308BF3D0030C03D17
:101E0E00C13D2C08B2003208F1002F088831C120E4
:101E1E008D317208C3007108C2004208BE07430824
:101E2E00BF3D0030C03DC13D2C08B2003208F1006C
:101E3E0030088831C1208D317208C3007108C2008C
:101E4E004208B2004308B300B401B5010830B23500
:101E5E00B30DB40DB50D890B2E2F3208BE07330806
:101E6E00BF3D3408C03D3508C13D3C08B200B3014A
:101E7E00B401B5013208BE073308BF3D3408C03D7A
:101E8E003508C13D0830B935BA0DBB0DBC0D890BF7
:101E9E004A2F3D083807B200B301B30D3208823E17
:101EAE00C200FF30333DC300C01B722F0130BE3560
:101EBE00BF0DC00DC10D890B5E2FBC1B3E14013032
:101ECE00B935BA0DBB0DBC0D890B672FFF30C2079C
:101EDE00FF30C33D5B2FB801BC1F8B2FFF30390580
:101EEE00B200FF303A05B300FF303B05B4007F303F
:101EFE003C05B500350834043304320403193E188A
:101F0E00892F8B2FB801B80A38080319B42F013066
:101F1E00BE070030BF3D0030C03D0030C13D411C0A
:101F2E00B42F3E08B2003F08B3004008B400410889
:101F3E00B5000130B600B537B40CB30CB20CB60B0D
:101F4E00A22F3508C1003408C0003308BF00320884
:101F5E00BE000130C2070030C33D4308803AB200D4
:101F6E0080303202031DBD2FFF304202031CC92FE9
:101F7E007F302000C1008030C0000030BF00003034
:101F8E00BE00F32F20004308803AB20080303202A8
:101F9E00031DD32F013042020318E02F0030200022
:101FAE00C1000030C0000030BF000030BE00B701DD
:101FBE00F32F20004208B2003208BD00FF30BE05EC
:101FCE00FF30BF057F30C0050030C1053D18C0177A
:101FDE003D36B2003208C1003708B2003208C104E3
:101FEE004108AD004008AC003F08AB003E08AA0017
:021FFE000800D9
:020000040001F9
:04000E00DCCFFFDF65
:10E000000000000000000000000000000000000010
:10E0100000000000FF00FF00FF00FF00FF00FF0006
:00000001FF
