:020000040000FA
:02000000B02826
:100008007E1480312000111C402818107803031D2D
:1000180023280230A6070030A73D2708803AF200BF
:1000280080307202031D1A2832302602031C37283A
:1000380032302000A6000030A700F8013728FE3033
:10004800A607FF30A73D2708803AF20080307202E9
:10005800031D302801302602031837282000A60186
:10006800A701F801F80A20002708F1002608F00087
:100078004221200011101814911DA0288B11210075
:1000880011102400141D6228941A55287A08203E5D
:1000980086008701010891000130F2007208FA0712
:1000A8001516941E62287A08203E860087010108EA
:1000B80091000130F2007208FA07151614199B28EE
:1000C800941A6F28F901F90A1108F2007208200041
:1000D800A80024001516941E9B28790803197A286D
:1000E8001108F2007208FA00F901902806307A0225
:1000F80003188B281108F2007A08203E8600870131
:10010800720881000130F2007208FA07902811087D
:10011800F20072082000A8002400951F9928951362
:100128001108F20072082000A8002400151620000B
:1001380091118B15210011142000921DAE28240066
:100148001108F20072082000A80092112400151668
:10015800200091117E100900B1284D21F8004E2190
:10016800F900FA01A001A101A201A301A401A501BE
:10017800A601A701A8017E102000C228F0302100A6
:10018800990037211F3021008C00113023008C008A
:100198000E3024008C002100951722001D14F03029
:1001A80021009E00803024009400363095001614FB
:1001B8001716971517157C3092002000911192118F
:1001C8002100921591150B172B2148308B003430E4
:1001D800980021001114200018148B1764002000C7
:1001E80021030319010000300E2174082000A30028
:1001F8007308A20003300E2174082000A5007308BC
:10020800A4000B30F7006230890B0829F70B082986
:100218000032F228F6007608F5000130F535FF3E89
:10022800031D1229753521009D001D141530F50098
:10023800C630890B1D29F50B1D29003221009D149C
:100248009D1824291C08F4001B08F30008003F30FF
:1002580020009B000C302500930091012000911094
:1002680004309C000800F430F30073082000A0005C
:10027800A101A201A301A401A50108000030710297
:10028800FF30031970020318080070082500910058
:080298000800013401340634B2
:020000040001F9
:04000E00DCCFFFDF65
:00000001FF
