:020000040000FA
:0400000080317F28A4
:1000060001347E1480312000911D6E288B11210051
:1000160011102400141D2928941A1C287C08A03EBF
:1000260086008701010891000130F0007008FC0786
:100036001516941E29287C08A03E86008701010813
:1000460091000130F0007008FC0715161419692894
:10005600941A38282100EF01EF0A24001108F00055
:1000660070082100D10024001516941E692821006D
:100076006F080319462824001108F0007008FC00D8
:100086002100EF015E2821307C0203185828240045
:100096001108F0007C08A03E8600870170088100E8
:1000A6000130F0007008FC075E2824001108F000FB
:1000B60070082100D1002400951F672895131108A8
:1000C600F00070082100D1002400151620009111BF
:1000D6008B15210011142000921D7D282400110883
:1000E600F00070082100D10020009211240015169E
:1000F600200091117E100900803181282100803175
:1001060003208031EF00FC01A03084000030850020
:10011600323088317E2080312030840001308500E5
:10012600163088317E207E10200080319A28F030EB
:100136002100990089315B2180311F308C001130FC
:1001460023008C000E3024008C0021009513A03073
:100156009E00803024009400363095001614171641
:10016600971517157C3092002000911192112100ED
:10017600921591150B1740308B008B1722008C16A9
:100186006400210021030319010021002203031D3D
:1001960030292308EB006B08F10000308731E02797
:1001A600803121002408EB006B08F1000130873113
:1001B600E027803121002508EB006B08F1000230B2
:1001C6008731E027803121002608EB006B08F1001B
:1001D60003308731E027803121002708EB006B08C8
:1001E600F10004308731E027803121002808EB0038
:1001F6006B08F10005308731E0278031210029089E
:10020600EB006B08F10006308731E02780312100D2
:100216002A08EB006B08F10007308731E0278031B0
:1002260021002B08EB006B08F10008308731E0272E
:10023600803121002C08EB006B08F1000930873172
:10024600E02780312100A20168302100EB00E43074
:10025600890B2B29EB0B2B29000000302100C8004D
:100266000030C7000030C6000030C5000030220054
:10027600A7000030A6000030A5000030A400003022
:10028600B5000030B4000030B3000030B200FA010F
:10029600FB017B08803A2100EB002C08803A6B02B8
:1002A600031D57292B087A020318AE2B6400003071
:1002B6008831A22080317108EB007208EC00ED0154
:1002C600EE016E08F8006D08F7006C08F6006B0882
:1002D600F50000308931DA21803178082200AF003C
:1002E6007708AE007608AD007508AC00033088319B
:1002F600A22080317108EB007208EC00ED01EE01DE
:100306006E08F8006D08F7006C08F6006B08F5003B
:1003160000308931DA21803178082200AB00770875
:10032600AA007608A9007508A800BF302000E100E1
:10033600D330E0003330DF003330DE004430C70016
:100346007F30C600C030C5000030C4004030AD006C
:100356005330AC003330AB003330AA0022002F08F4
:100366002000B10022002E082000B00022002D0837
:100376002000AF0022002C082000AE008D31E825B9
:1003860080312D08CB002C08CA002B08C9002A088A
:10039600C8008A31702280314708E5004608E4002B
:1003A6004508E3004408E2008531732580312000CA
:1003B60061082100D000200060082100CF00200045
:1003C6005F082100CE0020005E082100CD00230832
:1003D600F5002408F600890D893B8909F700F80025
:1003E60001308931DA2180317808AD007708AC0018
:1003F6007608AB007508AA0021002508F500260836
:10040600F600890D893B8909F700F800013089312A
:10041600DA2180317808C7007708C6007608C5005B
:100426007508C400210050082000CB0021004F08A9
:100436002000CA0021004E082000C90021004D08F6
:100446002000C8008A31702280314708B100460872
:10045600B0004508AF004408AE008D31E825803174
:100466002D082100D00020002C082100CF002000FC
:100476002B082100CE0020002A082100CD005008BC
:100486002000B10021004F082000B00021004E08D6
:100496002000AF0021004D082000AE0021005008CA
:1004A6002000AD0021004F082000AC0021004E08BE
:1004B6002000AB0021004D082000AA008D31E82560
:1004C60080312D08E1002C08E0002B08DF002A0807
:1004D600DE00210048082000E50021004708200032
:1004E600E400210046082000E30021004508200022
:1004F600E200853173258031200061082100C800A3
:10050600200060082100C70020005F082100C60007
:1005160020005E082100C500BF302000E100D33076
:10052600E0003330DF003330DE004430C7007F3078
:10053600C600C030C5000030C4004030AD005330A6
:10054600AC003330AB003330AA0022002B08200069
:10055600B10022002A082000B0002200290820004D
:10056600AF00220028082000AE008D31E82580313A
:100576002D08CB002C08CA002B08C9002A08C80081
:100586008A31702280314708E5004608E4004508B4
:10059600E3004408E20085317325803120006108BC
:1005A6002100CC00200060082100CB0020005F085D
:1005B6002100CA0020005E082100C9004C08200066
:1005C600AD0021004B082000AC0021004A082000A5
:1005D600AB00210049082000AA000730A03E860093
:1005E6008701403FAE00413FAF00423FB000433F6E
:1005F600B1008D31E82580312D082100CC00200086
:100606002C082100CB0020002B082100CA00200066
:100616002A082100C9004C082000B10021004B081F
:100626002000B00021004A082000AF002100490840
:100636002000AE0021004C082000AD0021004B0830
:100646002000AC0021004A082000AB002100490828
:100656002000AA008D31E82580312D08E1002C0804
:10066600E0002B08DF002A08DE0022002708200011
:10067600E500220026082000E400220025082000CC
:10068600E300220024082000E20085317325803132
:10069600200061082200A700200060082200A600B2
:1006A60020005F082200A50020005E082200A400AA
:1006B60021004C082000B10021004B082000B000AA
:1006C60021004A082000AF00210049082000AE00A2
:1006D600210050082000AD0021004F082000AC008A
:1006E60021004E082000AB0021004D082000AA0082
:1006F6008D31E82580312D08E1002C08E0002B081B
:10070600DF002A08DE00220035082000E50022006E
:1007160034082000E400220033082000E300220011
:1007260032082000E20085317325803120006108FF
:100736002200B500200060082200B40020005F08F7
:100746002200B30020005E082200B2000130FA0742
:100756000030FB3D4C2921002B08F5002C08F60043
:10076600890D893B8909F700F80001308931DA21C2
:1007760080317808C7007708C6007608C500750876
:10078600C400210048082000CB00210047082000B3
:10079600CA00210046082000C900210045082000A3
:1007A600C8008A31702280314708E1004608E0001F
:1007B6004508DF004408DE008B31E92380316108FB
:1007C6002100B000200060082100AF0020005F0873
:1007D6002100AE0020005E082100AD002B08F500C8
:1007E6002C08F600890D893B8909F700F8000130CD
:1007F6008931DA2180317808C7007708C600760883
:10080600C5007508C400220027082000CB0022007E
:1008160026082000CA00220025082000C900220060
:1008260024082000C8008A31702280314708E10080
:100836004608E0004508DF004408DE008B31E92366
:10084600803161082100B400200060082100B30057
:1008560020005F082100B20020005E082100B100E0
:100866000D30A03E86008701403F2000AA00413F90
:10087600AB00423FAC00433FAD001130A03E8600C6
:100886008701403FAE00413FAF00423FB000433FCB
:10089600B1008D31E82580312D082200A30020000B
:1008A6002C082200A20020002B082200A100200014
:1008B6002A082200A00021002B08F5002C08F600CB
:1008C600890D893B8909F700F80001308931DA2161
:1008D60080317808C7007708C6007608C500750815
:1008E600C4003E30AD008A30AC00AC30AB00C63040
:1008F600AA00220035082000B1002200340820009A
:10090600B000220033082000AF0022003208200089
:10091600AE008D31E82580312D08CB002C08CA00A9
:100926002B08C9002A08C8008A317022803147087E
:100936002100C400200046082100C300200045080D
:100946002100C200200044082100C10040302000E0
:10095600C7000030C6000030C5000030C4002100CA
:1009660044082000CB00210043082000CA002100D3
:1009760042082000C900210041082000C8008A3131
:100986007022803147082100C4002000460821005B
:10099600C300200045082100C200200044082100B1
:1009A600C1003F30F4008030F3000030F200003028
:1009B600F1004408F8004308F7004208F600410831
:1009C600F5008831DF208031031CA92C2100440862
:1009D600C0004308BF004208BE004108BD00220017
:1009E60023082000AD00220022082000AC002200CF
:1009F60021082000AB00220020082000AA001D309C
:100A0600A03E86008701403FAE00413FAF00423F17
:100A1600B000433FB1008D31E82580312D08C70075
:100A26002C08C6002B08C5002A08C4008731B82741
:100A3600803147082100B800200046082100B70091
:100A4600200045082100B600200044082100B5001A
:100A560040302000C7000030C6000030C50000301E
:100A6600C4001930A03E86008701403FDE00413FAA
:100A7600DF00423FE000433FE1001530A03E860024
:100A86008701403FE200413FE300423FE400433F2D
:100A9600E50085317325803120006108CB006008B0
:100AA600CA005F08C9005E08C8008A31702280311A
:100AB60047082100BC00200046082100BB0020009A
:100AC60045082100BA00200044082100B90003109F
:100AD60022008C1E03140318C12822008C12C3287E
:100AE60061088039E60066082100D20020006135E1
:100AF600E60066082100D4002000E01F842D2100B6
:100B06005414210054080319982D540A031D942DDA
:100B160000302000E1000030E0000030DF0000304F
:100B2600DE002000E017E101A12D00302000E100E9
:100B36000030E0000030DF000030DE00650880395C
:100B4600E60066082100D30053085206031D52171B
:100B560020006535E60066082100D3002000E41F6A
:100B6600B62D21005314210053080319CA2D530A28
:100B7600031DC62D00302000E5000030E4000030E3
:100B8600E3000030E2002000E417E501D32D003039
:100B96002000E5000030E4000030E3000030E20011
:100BA6002100540853020318332E521FE02D8030C3
:100BB6002000E60066082100D20654082000E60060
:100BC60066082100D50053082000E60066082100CB
:100BD600D40055082000E60066082100D300200056
:100BE6005E08E60066082100D50020006208E600DF
:100BF6006608DE00210055082000E6006608E200CF
:100C06005F08E60066082100D50020006308E600BC
:100C16006608DF00210055082000E6006608E300AC
:100C26006008E60066082100D50020006408E6009A
:100C36006608E000210055082000E6006608E4008A
:100C46006108E60066082100D50020006508E60078
:100C56006608E100210055082000E6006608E50068
:100C66002100D50153082000E600E7016708E900E6
:100C76002100540820006602E800031CE903690805
:100C8600803AEA0080306A02031D4B2E1A30680251
:100C9600031C8B2E2000610860045F045E040319A8
:100CA600562E0130572E0030E60066082100D5008A
:100CB60000302000E1000030E0000030DF000030AE
:100CC600DE00210053082000E60066082100D4005B
:100CD600902E551C762E553601382000E600660803
:100CE6002100D500782E0310D50C20005E1C7D2E29
:100CF6002100D51701302000E600E137E00CDF0CBB
:100D0600DE0CE60B802E0130E60066082100D407D3
:100D1600210053085402031C6C2E521BCB2E540880
:100D2600031D9F2E00302000E1000030E00000305F
:100D3600DF000030DE00080020006208DE076308DE
:100D4600DF3D6408E03D6508E13D611C502F210050
:100D5600551CB52E553601382000E60066082100E0
:100D6600D500B72E0310D50C20005E1CBC2E21002A
:100D7600D51701302000E600E137E00CDF0CDE0C71
:100D8600E60BBF2E0130E60066082100D407502F7F
:100D960020006108803AE6006508803A6602031D75
:100DA600DE2E64086002031DDE2E63085F02031D4B
:100DB600DE2E62085E020318182FFF30E600FF30B1
:100DC600E700FF30E800FF30E9005E086202EA0053
:100DD6005F08633BEB006008643BEC006108653B21
:100DE600ED006A08E6076B08E73D6C08E83D6D080C
:100DF600E93D6908E1006808E0006708DF00660869
:100E0600DE008030E60066082100D206D509D50A44
:100E16005508031D202F01302000DE070030DF3D7E
:100E26000030E03D0030E13D202F6208DE0263081D
:100E3600DF3B6408E03B6508E13B20006108600495
:100E46005F045E04031D4D2F21005508031D4D2F21
:100E560000302000E1000030E0000030DF0000300C
:100E6600DE0008000130DE35DF0DE00DE10D890BF7
:100E7600362F2100D51F412F20005E142100551C5E
:100E8600462F0314472F0310D50D540803194D2F71
:100E96000130D4022000E01F352F2100D301D51FD9
:100EA6005E2F55087F39031D5B2F20005E1C5E2FC9
:100EB6002100D301D30A2100530803198F2F0130D3
:100EC6002000DE070030DF3D0030E03D0030E13D30
:100ED600611C8F2F5E08E6005F08E7006008E800E7
:100EE6006108E9000130EA00E937E80CE70CE60C96
:100EF600EA0B772F6908E1006808E0006708DF0061
:100F06006608DE002100540A03198F2F01302000E5
:100F1600E60066082100D4072100540A031D540880
:100F2600031DA22F00302000E1000030E000003059
:100F3600DF000030DE00210054080319D201541CE2
:100F4600A72F2000E017AC2F7F302000E6006608B0
:100F5600E005210054362000E6006608E100210085
:100F6600D21F08002000E11708004708F4004608D1
:100F7600F3004508F2004408F1000030F8000030A4
:100F8600F7000030F6000030F5008831DF208731A9
:100F9600031808004708F4004608F3004508F20065
:100FA6004408F100883184207408C7007308C6001D
:100FB6007208C5007108C4000800F40023009518E3
:100FC600E12F7408F200F301720891007308920091
:100FD600710893003F30F2007208950503108B1BD1
:100FE60003148B13151555309600AA3096009514E8
:0C0FF6001511031C08008B1708002134A3
:1010FC00640080010131890B7F280034740873046B
:10110C0072047104031908008030F4060800F4001E
:10111C00902821006400230095188F287408F10092
:10112C00F20171089100720892003F30F3007308CD
:10113C009505151413080800F4007408F300013029
:10114C00F335FF3E031DA628733521009D001D14A9
:10115C000B30F3006230890BB128F30BB12800324D
:10116C0021009D149D18B8281D101C08F2001B08A6
:10117C00F1000800F900F501F6017108F300F40123
:10118C007308F7007408F800791CD0287708F50765
:10119C007808F63D0130F735F80D890BD12803108E
:1011AC00F90C7908031DCA287608F2007508F100BD
:1011BC000800003071052000A00000307205A1006D
:1011CC0080307305A2007F307405A300230822042D
:1011DC0021042004031DFA280030F4000030F30031
:1011EC000030F2000030F10000307505A000003036
:1011FC007605A10080307705A2007F307805A3002A
:10120C002308220421042004031D14290030F800B3
:10121C000030F7000030F6000030F500F41F2E29E6
:10122C000030A0000030A1000030A2008030A300EC
:10123C007108A0027208A13B7308A23B7408A33B7F
:10124C002308F4002208F3002108F2002008F10022
:10125C00F81F48290030A0000030A1000030A20087
:10126C008030A3007508A0027608A13B7708A23B4A
:10127C007808A33B2308F8002208F7002108F600A1
:10128C002008F5008030F4068030F80678087402E7
:10129C00031D080077087302031D0800760872020C
:1012AC00031D08007508710208000230F50075086E
:1012BC00A000A101A201003088318D208931F500F8
:1012CC0075082100A300013088318D208931F5008B
:1012DC0075082100A400023088318D208931F50079
:1012EC0075082100A500033088318D208931F50067
:1012FC0075082100A600043088318D208931F50055
:10130C0075082100A700053088318D208931F50042
:10131C0075082100A800063088318D208931F50030
:10132C0075082100A900073088318D208931F5001E
:10133C0075082100AA00083088318D208931F5000C
:10134C0075082100AB00093088318D208931F500FA
:10135C0075082100AC000030B0000030AF00003048
:10136C00AE000030AD000030B4000030B3000030EF
:10137C00B2000030B1000030B8000030B7000030CF
:10138C00B6000030B5000030BC000030BB000030AF
:10139C00BA000030B9003F30C0008030BF000030D0
:1013AC00BE000030BD0008002000A4002408031D6E
:1013BC00F81FF0297509A6007609A7007709A8007F
:1013CC007809A900A60A0319A70A0319A80A031980
:1013DC00A90AF8297808A9007708A8007608A700B8
:1013EC007508A6007808770476047504031D072A8F
:1013FC000030F8000030F7000030F6000030F50047
:10140C0008009630A0002008A500FE30290503191D
:10141C002E2A0130A0002008A5070130A936A80CFF
:10142C00A70CA60C890B142A0B2A0130A00020084B
:10143C00A5070130A6070030A73D0030A83D0030BD
:10144C00A93D0130A936A80CA70CA60C890B282A9B
:10145C00FF3029050319402A1B2A02302502031CE0
:10146C00422A0130A5020130A635A70DA80DA90D01
:10147C00890B3A2AA81F332A25184C2AFF30A605B7
:10148C00FF30A7057F30A805FF30A9050310A50C78
:10149C002508A000A101A201A3011830A035A10DBF
:1014AC00A20DA30D890B542A2008A6042108A70419
:1014BC002208A8042308A9042408031DF81F672A7E
:1014CC00A9172908F8002808F7002708F6002608AD
:1014DC00F50008004B088039CC004C08D5004B3582
:1014EC00CC004C08DC00CA1B5C145C0803198C2A69
:1014FC005C0A031D892A0030CB000030CA00003082
:10150C00C9000030C800CA17CB01942A0030CB00A8
:10151C000030CA000030C9000030C80047088039CC
:10152C00CC004C08D5064735CC004C08DD00C61B5A
:10153C005D145D080319B02A5D0A031DAD2A003045
:10154C00C7000030C6000030C5000030C400C6170C
:10155C00C701B82A0030C7000030C6000030C500F3
:10156C000030C4004708460445044404031DD72A30
:10157C000030CB000030CA000030C9000030C80079
:10158C008030CA047F30CB045508CC004C08CB0407
:10159C004B08C7004A08C6004908C5004808C400E3
:1015AC0008005C08031DE32A0030C7000030C600A9
:1015BC000030C5000030C40008005C08CC00CD0130
:1015CC004D08CF005D084C02CE00031CCF034E0823
:1015DC007F3ED60000304F3DD7004B08D4004A0860
:1015EC00D3004908D2004808D1000030CB000030AD
:1015FC00CA000030C9000030C8000030DB000030E9
:10160C00DA000030D9000030D800DD011A305D025C
:10161C000318482B5D0803192A2B0130D135D20D44
:10162C00D30DD40D890B142B0130C835C90DCA0D3F
:10163C00CB0D890B1B2BDB1B48140130D835D90D76
:10164C00DA0DDB0D890B242B47085402031D382BB4
:10165C0046085302031D382B45085202031D382B34
:10166C0044085102031C432B5B174408D102450864
:10167C00D23B4608D33B4708D43B0130CC004C0846
:10168C00DD070C2B5408530452045104031D581449
:10169C00CA1B652B0130C835C90DCA0DCB0D890B82
:1016AC00512BDB1B48140130D835D90DDA0DDB0D6D
:1016BC00890B5A2BFF30D607FF30D73D4E2BDD015F
:1016CC00DB1F7E2BFF305805CC00FF305905CD00B9
:1016DC00FF305A05CE007F305B05CF004F084E041B
:1016EC004D044C04031948187C2B7E2BDD01DD0ABC
:1016FC005D080319A72B0130C8070030C93D003025
:10170C00CA3D0030CB3D4B1CA72B4808CC004908E8
:10171C00CD004A08CE004B08CF000130D000CF37A7
:10172C00CE0CCD0CCC0CD00B952B4F08CB004E080F
:10173C00CA004D08C9004C08C8000130D60700305B
:10174C00D73D5708803ACC0080304C02031DB02B9B
:10175C00FF305602031CBF2BFF302000D600003098
:10176C00D7000030CB000030CA000030C900003078
:10177C00C80020005708803ACC0080304C02031D72
:10178C00C92B013056020318D72B2000D601D701E4
:10179C000030CB000030CA000030C9000030C80057
:1017AC00D50120005608CC004C08DC005C1CE02B5A
:1017BC00CA17E42B7F30CC004C08CA055C36CC0031
:1017CC004C08CB00CA2A61088039E200620821006B
:1017DC00D20020006135E20062082100D800200010
:1017EC00E01FFA2B21005814210058082000E200B9
:1017FC00E30162082100DD00200063082100DE0007
:10180C00FF3020005E052100E300FF3020005F0563
:10181C002100E4007F30200060052100E50000304D
:10182C00200061052100E6005D085E040319232CED
:10183C00E5175D0A5E04031D2B2C0030E60000301A
:10184C00E5000030E4000030E3005D085E04031D99
:10185C00392C00302000E1000030E0000030DF00C7
:10186C000030DE000800520803195E2C0030E20044
:10187C004030E1000030E0000030DF008030E10457
:10188C00FF30E20421302200B0000030B100210012
:10189C0062082000E100210061082000E000210026
:1018AC0060082000DF0021005F082000DE00080037
:1018BC005D0A5E04031D7A2C7F30E2008030E1006B
:1018CC000030E0000030DF0062082000E100210061
:1018DC0061082000E000210060082000DF002100EA
:1018EC005F082000DE0008008130DD07FF30DE3DA0
:1018FC005D0801392000E20062082100D8000130A7
:10190C00DE37DD0C890B862C7F30DD070030DE3DA9
:10191C006335D400640DD500650DD600660DD70077
:10192C000030E6000030E5000030E4000030E30059
:10193C000130DC000030DB000030DA000030D90070
:10194C0058080319B02C0130D435D50DD60DD70D50
:10195C00890BAA2CD3011930530203182F2D5908C7
:10196C00E3045A08E4045B08E5045C08E604660832
:10197C005702031DCB2C65085602031DCB2C6408A3
:10198C005502031DCB2C63085402031CDE2C630888
:10199C00D4026408D53B6508D63B6608D73B59088A
:1019AC00E3075A08E43D5B08E53D5C08E63DFC2C8A
:1019BC0059092000E20021005A092000E30021000F
:1019CC005B092000E40021005C092000E5006208AE
:1019DC002100E305200063082100E40520006408D1
:1019EC002100E505200065082100E60559082000C6
:1019FC00E20021005A082000E30021005B082000CF
:101A0C00E40021005C082000E5000130E536E40C20
:101A1C00E30CE20C890B0C2D65082100DC00200086
:101A2C0064082100DB00200063082100DA0020009C
:101A3C0062082100D9000130D435D50DD60DD70D53
:101A4C00890B222D01302000E20062082100D3070F
:101A5C00B12C63082000E200210064082000E300A0
:101A6C00210065082000E400210066082000E50044
:101A7C000130E536E40CE30CE20C890B3F2D6508D4
:101A8C002100E600200064082100E5002000630826
:101A9C002100E400200062082100E300013063050E
:101AAC00D90000306405DA0000306505DB00003039
:101ABC006605DC0063082000E200210064082000B9
:101ACC00E300210065082000E400210066082000E6
:101ADC00E5000130E536E40CE30CE20C890B702DCB
:101AEC0065082100E600200064082100E5002000C4
:101AFC0063082100E400200062082100E30059087B
:101B0C00E3075A08E43D5B08E53D5C08E63D661CCE
:101B1C00B82D63082000E200210064082000E300D7
:101B2C00210065082000E400210066082000E50083
:101B3C000130E536E40CE30CE20C890B9F2D6508B3
:101B4C002100E600200064082100E5002000630865
:101B5C002100E400200062082100E3000130DD07D1
:101B6C000030DE3DFF306305DF00FF306405E00030
:101B7C007F306505E10000306605E2005D0820005D
:101B8C00E20062082100D8005818E11758362000EE
:101B9C00E20062082100E2007F302000E2006208CF
:101BAC002100E20562082000E1002100610820000C
:101BBC00E000210060082000DF0021005F08200009
:101BCC00DE0008002D088039B2003208B7002D3530
:101BDC00B2003208B900AC1B391439080319032EB2
:101BEC00390A031D012E0030AD000030AC0000306E
:101BFC00AB000030AA00AC170B2E0030AD0000304B
:101C0C00AC000030AB000030AA0031088039B200C3
:101C1C003208B7063135B2003208B800B01B3814A0
:101C2C0038080319262E380A031D242E0030B10063
:101C3C000030B0000030AF000030AE00B0172E2ED8
:101C4C000030B1000030B0000030AF000030AE000A
:101C5C003808031D3908031D3C2E0030AD00003040
:101C6C00AC000030AB000030AA0008002A08B2001B
:101C7C003208F10030088831C0208D317208C30061
:101C8C007108C2004208B200B301B401B5013508B5
:101C9C00BD003408BC003308BB003208BA0043084E
:101CAC00B200B301B401B5013508C1003408C0005D
:101CBC003308BF003208BE002B08B2003208F10016
:101CCC002F088831C0208D317208C3007108C20002
:101CDC004208B200B301B401B5013208BA073308A7
:101CEC00BB3D3408BC3D3508BD3D4308B200B301D3
:101CFC00B401B5013208BE073308BF3D3408C03DFE
:101D0C003508C13D2C08B2003208F1002E0888318C
:101D1C00C0208D317208C3007108C2004208B200A5
:101D2C00B301B401B5013208BA073308BB3D34081E
:101D3C00BC3D3508BD3D4308B200B301B401B5014B
:101D4C003208BE073308BF3D3408C03D3508C13DDD
:101D5C000830BA35BB0DBC0DBD0D890BAF2E2B0851
:101D6C00B2003208F1002E088831C0208D31720883
:101D7C00C3007108C2004208BA074308BB3D0030DB
:101D8C00BC3DBD3D2A08B2003208F1002F08883155
:101D9C00C0208D317208C3007108C2004208BA0716
:101DAC004308BB3D0030BC3DBD3D0830BA35BB0DD2
:101DBC00BC0DBD0D890BDC2E2A08B2003208F100D7
:101DCC002E088831C0208D317208C3007108C20002
:101DDC004208BA074308BB3D0030BC3DBD3D2B0853
:101DEC00B2003208F10030088831C0208D31720801
:101DFC00C3007108C2004208BE074308BF3D003053
:101E0C00C03DC13D2C08B2003208F1002F088831CA
:101E1C00C0208D317208C3007108C2004208BE0791
:101E2C004308BF3D0030C03DC13D2C08B200320814
:101E3C00F10030088831C0208D317208C300710860
:101E4C00C2004208B2004308B300B401B501083027
:101E5C00B235B30DB40DB50D890B2E2F3208BE075C
:101E6C003308BF3D3408C03D3508C13D3D08B200C4
:101E7C00B301B401B5013208BE073308BF3D3408C5
:101E8C00C03D3508C13D0830BA35BB0DBC0DBD0D8C
:101E9C00890B4A2F39083807B200B301B30D320849
:101EAC00823EC200FF30333DC300C01B722F013095
:101EBC00BE35BF0DC00DC10D890B5E2FBD1B3E1471
:101ECC000130BA35BB0DBC0DBD0D890B672FFF3032
:101EDC00C207FF30C33D5B2FB801BD1F8B2FFF30F6
:101EEC003A05B200FF303B05B300FF303C05B400AF
:101EFC007F303D05B5003508340433043204031932
:101F0C003E18892F8B2FB801B80A38080319B42F43
:101F1C000130BE070030BF3D0030C03D0030C13D38
:101F2C00411CB42F3E08B2003F08B3004008B40077
:101F3C004108B5000130B600B537B40CB30CB20C87
:101F4C00B60BA22F3508C1003408C0003308BF00FF
:101F5C003208BE000130C2070030C33D4308803A4E
:101F6C00B20080303202031DBD2FFF304202031C31
:101F7C00C92F7F302000C1008030C0000030BF006E
:101F8C000030BE00F32F20004308803AB2008030AE
:101F9C003202031DD32F013042020318E02F003010
:101FAC002000C1000030C0000030BF000030BE0077
:101FBC00B701F32F20004208B2003208B900FF30FD
:101FCC00BE05FF30BF057F30C0050030C105391894
:101FDC00C0173936B2003208C1003708B2003208D7
:101FEC00C1044108AD004008AC003F08AB003E08FE
:041FFC00AA0008002F
:020000040001F9
:04000E00DCCFFFDF65
:10E000000000000000000000000000000000000010
:10E0100000000000FF00FF00FF00FF00FF00FF0006
:00000001FF
