:020000040000FA
:0400000080316E28B5
:100008007E1480312000911D61288B112100111070
:100018002400141D2D28941A1E2820006F08203E45
:100028008600013087000108240091002000EF0AB3
:1000380024001516941E2D2820006F08203E8600E7
:10004800013087000108240091002000EF0A2400F5
:10005800151614195C28941A37282100EE01EE0AA7
:10006800240011081516941E5C2821006E08031937
:100078004428240011082000EF002100EE01562832
:100088001D3020006F02031854286F08203E860098
:10009800013087002400110881002000EF0A56284B
:1000A800240011082400951F5B28951311081516C4
:1000B800200091118B15210011142000921D6C282D
:1000C8002400110820009211240015162000911117
:1000D8007E100900883135284908F3004808F200E5
:1000E8004708F100460887238C31F924803103182A
:1000F8007E28A42B49082000AD00210048082000D4
:10010800AC00210047082000AB00210046088F31D1
:10011800062780318B319B238031031C95282100D1
:10012800A42BBF302100A3008030A2004030A101E1
:10013800A0012000C000CA30BF01BE01BD01BA0045
:10014800210049082000B900210048082000B80013
:10015800210047082000B700210046082000B6000B
:100168009C213908C4003808C3003708C200360883
:10017800C1008331B82380315F238031DF21803192
:100188002308C9002208C8002108C7002008C600A3
:10019800FF30CA07031CCB034908B7004808B6005C
:1001A8004708B5004608B4005130B8008730B90098
:1001B8000830BA00BB010F233708C9003608C80049
:1001C8003508C7003408C6004908A3004808A2003B
:1001D8004708A1004608A0003F302000C000313089
:1001E800BF007230BE001830BD0021004A08FA0076
:1001F8004B088E31A52680318D31552580317D08FB
:10020800C4007C08C3007B08C2007A08C10083319F
:10021800B82380315F238031DF212308C9002208F9
:10022800C8002108C7002008C600080037082000B9
:10023800B900210036082000B80021003508200048
:10024800B700210034082000B600BC30BA009C2159
:1002580080312100BD1F45298D23803187238C31B2
:10026800F924803103184029BF30B7008030B60028
:100278000030B501B4010800B401B501B601B701F9
:10028800080000303D021D3003193C020318080025
:100298003708F3003608F2003508F1003408F0009A
:1002A8008D31C82580317308FD007208FC00710883
:1002B800FB007008FA0001308D31552580317D082A
:1002C8002100BB007C08BA007B08B9007A08B80096
:1002D8008D23F0003B08F7003A08F6003908F500CE
:1002E8003808F4008C31F924803103189329BF3081
:1002F800A3008030A200A101A0013B08A7003A0892
:10030800A6003908A5003808A400DF212308B70093
:100318002208B6002108B5002008B40008003B08F0
:10032800B7003A08B6003908B5003808B400080024
:100338003908AD003808AC003708AB003608AA0009
:100348008F31342780318B319B238031031CB729AF
:100358003A08860000308701C03FC13FB601B701A7
:10036800B801B901080039087F39BB00BC01BB35A9
:10037800BC0D3A08860087013B08C03F3C08C13FD6
:10038800380D380D0139BB00BC013A0886003B081E
:10039800810441313C0881043A0886008230870193
:1003A8008107FF304131813D7F31390880393F383D
:1003B800B900B81308002308B0008030B005233511
:1003C800B200A21B321432080319F129320FEE29A8
:1003D800B3238031A217A301F329B323803127085F
:1003E800B1008030B10531083006031D30172735BC
:1003F800B100A61B311431080319092A310F062A46
:10040800AE238031A617A7010B2AAE23803132080C
:1004180031020318312A301F132A8030B0063208FF
:10042800B3003108B2003308B1002008B300240833
:10043800A0003308A4002108B3002508A100330850
:10044800A5002208B3002608A2003308A600230846
:10045800B3002708A3003308A700B3013108A80098
:10046800A9012908AB0032082802AA00031CAB0323
:100478002B08803AAC0080302C02031D452A1A3024
:100488002A02031C622A21002308220421042004D2
:100498000319502A0130512A0030B300A001A101EC
:1004A800A201A3013108B200672A331C5F2A333640
:1004B8000138B300602AB336952380312100310812
:1004C8003202031C592A301B812A3208031D6D2A67
:1004D800A92B2408A0072508A13D2608A23D270826
:1004E800A33D231CE12A331C7D2A33360138B3008F
:1004F8007E2AB33695238031E12A2308803AA80062
:100508002708803A2802031D932A26082202031D81
:10051800932A25082102031D932A24082002031880
:10052800BE2AFF30A800A900AA00AB0020082402B8
:10053800AC002108253BAD002208263BAE0023086D
:10054800273BAF002C08A8072D08A93D2E08AA3D77
:100558002F08AB3D2B08A3002A08A2002908A100F8
:100568002808A0008030B006B309B30FC62A9D231F
:100578008031C62A2408A0022508A13B2608A23BF0
:100588002708A33B2308220421042004031DDF2A93
:100598003308031DDF2AA92BA035A10DA20DA30D39
:1005A800B31B2014331CDB2A0314B30DDC2AB33528
:1005B8003208031DB203A21FD02AB101B31FEC2ACF
:1005C80033087F3903192018EA2AEC2AB101B10A45
:1005D80031080319F92A9D238031231CF92AA337EE
:1005E800A20CA10CA00C320FB20A320A031D320869
:1005F800031D052BA001A101A201A30132080319C3
:10060800B001321C092BA2170A2BA2133236A30001
:10061800B01BA31708006F238031C5004008C40031
:100628003F08C3003E08C2003A083B040319562B92
:10063800FF30BA07031CBB036F23A3004008A200C6
:100648003F08A1003E08A00045082000C000210086
:1006580044082000BF00210043082000BE002100FC
:1006680042082000BD00210037082000C4002100F6
:1006780036082000C300210035082000C2002100F0
:1006880034082000C1008331B82380315F238031D2
:10069800DF2180312308C5002208C4002108C300D7
:1006A8002008172B4508B7004408B6004308B500D2
:1006B8004208B400080040082100A70020003F08B5
:1006C8002100A60020003E082100A50020003D08CA
:1006D8002100A40008003B08BD003A08BC00BC3556
:1006E800BD0DBC35BD0D38083C07840039083D3DBB
:1006F8008500003FBE00013FBF00023FC000033F2E
:10070800C10041080800F000F401F501F601F70105
:1007180008003708F3003608F2003508F1003408FD
:1007280008002018B317A337A20CA10CA00CB20A1A
:1007380008000130A0070030A13DA23DA33D0800FC
:10074800C601C701C801C9010800A001A101A20191
:10075800A3010800A401A501A601A7010800A001A2
:10076800A101A201A30108004008C9008030C90501
:100778004035CF00BF1B4F144F080319C92B4F0F2B
:10078800C72B29258331BF17CB2B29258331440853
:100798008039C9064435CA00C31B4A144A080319DC
:1007A800DB2B4A0FD92B24258331C317DD2B2425B6
:1007B80083314A08031D4F08031DE72BBD01BE0105
:1007C800BF01C00108003D08F0004308D22483316E
:1007D8007108D5007008D400CB00CC01CD01CE0142
:1007E8005508D000D101D201D3013E08F0004208DB
:1007F800D2248331710804258331D00701300318CE
:10080800D1070318D2070318D3073F08F00041089F
:10081800D2248331710804258331F42483313E08BE
:10082800F0004108D2248331E92483313D08F000E7
:100838004208D2248331E92483314D08CE004C0884
:10084800CD004B08CC00CB013D08F0004108D22474
:100858008331E92483313E08F0004308D2248331F0
:10086800112583314208D22483311125833143086D
:10087800D22483317108D5007008D400C50055080A
:10088800C600C701C8014708C8004608C700450890
:10089800C600C5014508D0074608D13D4708D23DE6
:1008A8004808D33D4E08F42483314F08D400D501BD
:1008B8004A08D4070318D50A8230D407031CD50385
:1008C800D21B722CD035D10DD20DD30DCE1B5014A6
:1008D800FF30CB35CC0DCD0DCE0D612CCA01CE1F0E
:1008E800872C4B08C5004C08C6004D08C7007F3050
:1008F8004E05C80047044604450403195018852CC2
:10090800872CCA01CA0A4A080319992C0130D00752
:100918000030D13DD23DD33D531C992CD337D20C56
:10092800D10CD00CD40A0319D50A1E258331031D16
:100938009F2CFF305402031CA92C7F302000D300C9
:100948008030D200D101D001C72C20001E25833170
:10095800031DB02C013054020318B92C2000D0011B
:10096800D101D201D301C901C72C20005408CF00FE
:10097800FF30D005D1057F30D2050030D3014F18A4
:10098800D2174F36D3004908D3045308C000520881
:10099800BF005108BE005008BD000800F700F30171
:1009A800F4017008F500F601771CDE2C7508F307D2
:1009B8007608F43DF535F60DF7367708031DD82C83
:1009C8007408F1007308F00008007108D500700879
:1009D800D400CB075508CC3D0030CD3DCE3D0800B6
:1009E800D00701300318D1070318D2070318D3071B
:1009F8004D08CE004C08CD004B08CC00CB010800B8
:100A0800D5007008D400CB0701300318CC070318B1
:100A1800CD070318CE07550808007108D5007008DF
:100A2800D400D0075508D13D0030D23DD33D3F0812
:100A3800F00008005508803AC500803045020800DB
:100A4800C101C201C301C4010800BD01BE01BF014B
:100A5800C00108005D08E6008030E6055D35ED0060
:100A6800DC1B6D146D080319412D6D0F3F2DDA0144
:100A7800DB01DC01DD01DC17442DDA01DB01DC01DF
:100A8800DD0159088039E6065935EE00D81B6E1489
:100A98006E080319572D6E0F552DD601D701D801B1
:100AA800D901D8175A2DD601D701D801D90159082B
:100AB800580457045604031D742D8030DA01DB01F5
:100AC800DC01DD01DC047F30DD046608DD045D083F
:100AD800D9005C08D8005B08D7005A08D60008007F
:100AE8006D08031D7C2DD601D701D801D901080056
:100AF8006D08E700E8016E08E702031CE8037F3091
:100B0800E7070318E80A5D08E5005C08E4005B08ED
:100B1800E3005A08E200DA01DB01DC01DD01E9014A
:100B2800EA01EB01EC01EE011A306E020318C82D40
:100B38006E080319AD2DE235E30DE40DE50DDA3548
:100B4800DB0DDC0DDD0DEC1B5A14E935EA0DEB0D60
:100B5800EC0D59086502031DBB2D58086402031DDE
:100B6800BB2D57086302031DBB2D56086202031CE8
:100B7800C62D6C175608E2025708E33B5808E43BB9
:100B88005908E53BEE0A982D65086404630462047D
:100B9800031D6914DC1BDF2DDA35DB0DDC0DDD0DE3
:100BA800EC1B5A14FF30E935EA0DEB0DEC0DE707A5
:100BB800031CE803CE2DEE01EC1FF42D6908DE00BE
:100BC8006A08DF006B08E0007F306C05E100600414
:100BD8005F045E0403195A18F22DF42DEE01EE0A93
:100BE8006E080319062E0130DA070030DB3DDC3DC4
:100BF800DD3D5D1C062EDD37DC0CDB0CDA0CE70A6C
:100C08000319E80A2C268531031D0C2EFF306702D4
:100C1800031C132EFF302000E70032268531200008
:100C28002C268531031D1A2E013067020318212E48
:100C38002000E70132268531E60120006708ED0033
:100C48006D1C282EDC17292EDC136D36DD00692D6E
:100C58006808803ADE0080305E020800E801DA01A8
:100C6800DB01DC01DD0108002308A8008030A805AD
:100C78002335B200A21B32143208B300B401230892
:100C8800B8002208B7002108B6002008B500FF30D8
:100C9800B505B6057F30B705B80133083404031924
:100CA8005A2EB717330A3404031D5E2EB501B60158
:100CB800B701B80133083404031D672EA001A10150
:100CC800A201A301080028080319742E4030BC01B2
:100CD800BB008030BA01B901BB04FF30BC04172F38
:100CE800330A3404031D7F2E7F30BC008030BB00E4
:100CF800BA01B901172F8130B307031CB4033308B5
:100D0800B2000130B2057F30B437B30CB307031813
:100D1800B40A3535AA00360DAB00370DAC00380DD6
:100D2800AD000130B501B601B701B801B100B0019D
:100D3800AF01AE0132080319A52EAA35AB0DAC0DD3
:100D4800AD0DA901193029020318E72E2E08B504A4
:100D58002F08B6043008B7043108B80438082D0243
:100D6800031DC02E37082C02031DC02E36082B0287
:100D7800031DC02E35082A02031CCD2E3508AA02F1
:100D88003608AB3B3708AC3B3808AD3B20278631EB
:100D9800DD2E2E09A4002F09A5003009A60031096F
:100DA800A7002408B5052508B6052608B7052708AD
:100DB800B805B136B00CAF0CAE0CAA35AB0DAC0D06
:100DC800AD0DA90AA62EB836B70CB60CB50C380866
:100DD800B1003708B0003608AF003508AE00013062
:100DE800AE05AF01B001B101B836B70CB60CB50C01
:100DF80020278631381C072FB836B70CB60CB50C2F
:100E0800B30A0319B40A3508B9003608BA007F30A6
:100E18003705BB00BC013308B2003218BB173236A5
:100E2800BC00BC13172F3C08A3003B08A2003A08DB
:100E3800A1003908A00008002E08B5072F08B63D04
:100E48003008B73D3108B83D08000034003480341C
:100E58003F341834723431343F34F034FD3475344F
:100E68003E344734583463343D34583495341D3453
:100E78003C348234C434AE343A34A834783421341F
:100E88003934EF34933480343734A0349234A7346F
:100E98003534463456341534343400340034003490
:100EA8000034C434FF347F343F348034EF34FF34AB
:100EB800BE349034E134A9343E34EC348234763490
:100EC800BE348234AD342B343E340E343C34C33417
:100ED800BD348734D13413343D3441347834D33479
:0E0EE800BB34640080010131890B762F003489
:10106A0021000130EE0020002030EF018400013021
:10107A00850029308731752788317E102000452860
:10108A00F030210099004E2788311F3021008C0052
:10109A00113023008C000E3024008C00210095179B
:1010AA00F0309E00803024009400363095001614EB
:1010BA001716971517157C3092002000911192117E
:1010CA002100921591150B1748308B008B172200BF
:1010DA008C1664002200210B732801002200220BC7
:1010EA00BC282308F0000030692288312200240835
:1010FA00F00001306922883122002508F000023010
:10110A006922883122002608F000033069228831DA
:10111A0022002708F00004306922883122002808BA
:10112A00F00005306922883122002908F0000630D3
:10113A006922883122002A08F000073069228831A2
:10114A0022002B08F00008306922883122002C087E
:10115A00F00009306922883134302200CD00F130A4
:10116A00890BB528CD0BB52800322200A201C10196
:10117A00C201C301C401BD01BE01BF01C001D10149
:10118A00D2015208803ACD002C08803A4D02031D44
:10119A00D0282B08510203189829640000308222B3
:1011AA008831AC2688315525883130268331B823D9
:1011BA0088312B2785312E258831EC268131DF2194
:1011CA008831CC2688312308FA002408A5268831DC
:1011DA00552588317D08C0007C08BF007B08BE0009
:1011EA007A08BD0022002508FA002608A5268831BB
:1011FA0055258831FC2648082000DD0022004708D2
:10120A002000DC00220046082000DB0022004508FE
:10121A002000DA0085312E2588315908C400580883
:10122A00C3005708C2005608C1008331B823883169
:10123A005F2688319B228831852644082100A70031
:10124A00220043082100A600220042082100A5002E
:10125A00220041082100A4008131DF2188312308BE
:10126A002200C400210022082200C3002100210814
:10127A002200C200210020082200C100033082227D
:10128A008831AC2688315525883130268331B823F8
:10129A0088312B2785312E258831EC268131DF21B3
:1012AA008831CC2688310730203E0D272200480895
:1012BA002000C400220047082000C300220046087C
:1012CA002000C200220045082000C1008331B82353
:1012DA0088315F2688319B22883185264008210083
:1012EA00A70022003F082100A60022003E08210094
:1012FA00A50022003D082100A4008131DF218831A8
:10130A0023082200C000210022082200BF00210079
:10131A0021082200BE00210020082200BD00D10AB7
:10132A000319D20AC62822002B08FA002C08A5267F
:10133A00883155258831FC2644082000DD0022002A
:10134A0043082000DC00220042082000DB002200C3
:10135A0041082000DA0085312E258831BC268631E5
:10136A003826883123082200B000210022082200F2
:10137A00AF00210021082200AE002100200822002F
:10138A00AD002B08FA002C08A5268831552588318E
:10139A00FC2640082000DD0022003F082000DC0077
:1013AA0022003E082000DB0022003D082000DA006F
:1013BA0085312E258831BC26863138268831230886
:1013CA002200B400210022082200B30021002108D3
:1013DA002200B200210020082200B1002D300D2782
:1013EA001130203E8600403FC100413FC200423FCB
:1013FA00C300433FC4008331B82388314008220028
:10140A00B80020003F082200B70020003E08220052
:10141A00B60020003D082200B50040302000D90067
:10142A001930D801D701D601203E86000130870045
:10143A00403F2100A000413FA100423FA200433F9C
:10144A00A3001530203E8600403FA400413FA5007E
:10145A00423FA600433FA7008131DF21883123089C
:10146A002000DD00210022082000DC0021002108E4
:10147A002000DB00210020082000DA0085312E251B
:10148A00883159082200BC00200058082200BB00FD
:10149A00200057082200BA00200056082200B9008E
:1014AA0003108C1E0314031C5D2A22008C165F2A6B
:1014BA0022008C1268302200CD00E430890B632AA6
:1014CA00CD0B632A00006E28F100230095186A2AC2
:1014DA00710891009201700893003F30950503103E
:1014EA008B1B03148B13151555309600AA309600E2
:1014FA009514151103188B170800F300090709073B
:10150A0021009D001D140B30F2006230890B8B2ADA
:10151A00F20B8B2A003221009D149D18922A1D106D
:10152A001C08F100F0011B08F0040800E9015C083E
:10153A002000AD0021005B082000AC0021005A0801
:10154A002000AB0021005908062788319B238831E7
:10155A00031CBF2AF001F101F201F3012100600826
:10156A00F7005F08F6005E08F5005D08F400F9244C
:10157A008831392F210060082000AD0021005F0862
:10158A002000AC0021005E082000AB0021005D08AD
:10159A00062788319B238831031CDC2A3F3021002F
:1015AA00DC008030DB000030DA01D90108002100BC
:1015BA005C08F3005B08F2005A08F100590883310D
:1015CA0087238831F92488310318362B6008F30001
:1015DA005F08F2005E08F1005D08F000C825883156
:1015EA007308ED007208EC007108EB007008EA005D
:1015FA006D08FD006C08FC006B08FB006A08FA0025
:10160A000030552588317D08AD007C08AC007B0888
:10161A00AB007A08AA00210060082000B10021006E
:10162A005F082000B00021005E082000AF00210002
:10163A005D082000AE009B2388310318262B210069
:10164A00392F21006A08E9000130E9051A27883193
:10165A00BF257308DC007208DB007108DA00700825
:10166A00D9005C08C9005B08C8005A08C7005908B5
:10167A00C6008031702088314908E4004808E30038
:10168A004708E2004608E10060082000C000210087
:10169A005F082000BF0021005E082000BE00210074
:1016AA005D082000BD00210064082000C40021005C
:1016BA0063082000C300210062082000C200210044
:1016CA0061082000C1008331B82388314008210015
:1016DA00E80020003F082100E70020003E08210022
:1016EA00E60020003D082100E5006808D1006708EF
:1016FA00D0006608CF006508CE00CF238831510894
:10170A00DC005008DB004F08DA004E08D9006908EF
:10171A00031908001A278831BF257308DC007208EC
:10172A00DB007108DA007008D90008008030B201C5
:10173A00B3012C05B4007F302D05B5003404330401
:10174A003204031DAC2BAA01AB01AC01AD01803000
:10175A00B201B3013005B4007F303105B50034045D
:10176A0033043204031DBB2B3427883131082D067C
:10177A00031DC92B30082C06031DC92B2F082B0665
:10178A00031DC92B2E082A060319CD2B03100800A6
:10179A0003140800DC268831342788319B238831DA
:1017AA00031CE02B3F302100D1008030D0000030F4
:1017BA00CF01CE0108004430F3003130F20072301C
:1017CA00F1001830F00021005108F7005008F60027
:1017DA004F08F5004E08F400F92488310318FC2B51
:1017EA007F30D100D000FF30CF00CE000800232781
:1017FA008831F000C430F7003A30F6004830F5007E
:10180A008730F400F924883103180C2C442F23273D
:10181A00833187238831F92488310318162C013043
:10182A00172C0030D800580803192C2C5108F30043
:10183A005008F2004F08F1004E08F000BF25730867
:10184A00D1007208D0007108CF007008CE003F3076
:10185A002000C000B830BF00AA30BE003B30BD0037
:10186A00210051082000C400210050082000C300B4
:10187A0021004F082000C20021004E082000C100AC
:10188A008331B823883140082100D10020003F0865
:10189A002100D00020003E082100CF0020003D0892
:1018AA002100CE005108B7005008B6004F08B50015
:1018BA004E08B40081311A2188313708D50036081C
:1018CA00D4003508D3003408D2005508F300540870
:1018DA00F2005308F1005208F000C8258831710857
:1018EA00D7007008D600FA005708A5268831552572
:1018FA0088317D082100B7007C08B6007B08B50056
:10190A007A08B4005108BB005008BA004F08B90061
:10191A004E08B80013263708D1003608D00035081B
:10192A00CF003408CE005108B7005008B6004F085F
:10193A00B5004E08B4002930B8008730B900093024
:10194A00BA00BB0183310F2388313708C900360832
:10195A00C8003508C7003408C6005708CB00560827
:10196A00CA00942788314908D1004808D00047089E
:10197A00CF004608CE00580803190800DC26883133
:10198A007F30B100B000FF30AF00AE009B2388313A
:10199A00031CD12C2100442F210051082000D9001A
:1019AA00210050082000D80021004F082000D7004D
:1019BA0021004E082000D6003F30DD008030DC00D8
:1019CA00DB01DA0185312E2559082100D1002000DA
:1019DA0058082100D000200057082100CF0020001D
:1019EA0056082100CE0008008030F801F90172057E
:1019FA00FA007F307305FB007A0479047804031D2A
:101A0A000A2DF001F101F201F3018030F801F90128
:101A1A007605FA007F307705FB007A0479047804AA
:101A2A00031D1B2DF401F501F601F701F31F2F2DFC
:101A3A003E2788317008F8027108F93B7208FA3BB0
:101A4A007308FB3B7B08F3007A08F2007908F1007F
:101A5A007808F000F71F432D3E2788317408F802F2
:101A6A007508F93B7608FA3B7708FB3B7B08F700D9
:101A7A007A08F6007908F5007808F4008030F30651
:101A8A00F70677087302031D080076087202031D21
:101A9A00080075087102031D080074087002080026
:101AAA002000A4002408031DFD1F6B2D7A09A6003F
:101ABA007B09A7007C09A8007D09A900A60A0319C9
:101ACA00A70A0319A80A0319A90A732D7D08A900F0
:101ADA007C08A8007B08A7007A08A6007D087C0479
:101AEA007B047A04031D7E2DFA01FB01FC01FD0132
:101AFA0008009630A500FE3029050319912DA50A84
:101B0A0049278831802D0130A50AA6070030A73D54
:101B1A00A83DA93D49278831FF30290503199F2D82
:101B2A00882D02302502031CA12DA503A635A70D79
:101B3A00A80DA90DA81F962D251CA813A5362508A2
:101B4A00A300A201A101A0012008A6042108A7045C
:101B5A002208A8042308A9042408031DFD1FB62D82
:101B6A00A9172908FD002808FC002708FB002608F9
:101B7A00FA0008007308720471047004031908005B
:101B8A008030F30608000310720D730DF90079080E
:101B9A00031DD42DF001F101F201F30108007008D0
:101BAA00F4007108F5007208F6007308F7001F3098
:101BBA00F736F60CF50CF40C890BDD2D7408F800D9
:101BCA009630F217F301F902F91FF72D7908803AD6
:101BDA00973E031CCF2DF336F20CF10CF00CF90FE3
:101BEA00F02D042E203079020318CF2D790803191D
:101BFA00042EF035F10DF20DF30DF903FB2D7808E3
:101C0A0003190800F009F109F209F309F00A0319A6
:101C1A00F10A0319F20A0319F30A08008030B70619
:101C2A003B08A3003A08A2003908A1003808A0001E
:101C3A003708A7003608A6003508A5003408A4000E
:101C4A008131DF212308B7002208B6002108B50038
:101C5A002008B40008007D082200C8007C08C700DC
:101C6A007B08C6007A08C500C0302100A3002030D6
:101C7A00A2004430A101A0012000D9007F30D80081
:101C8A00C030D7004030D601C000A030BF00BE012E
:101C9A00BD01220048082000C40022004708200095
:101CAA00C300220046082000C20022004508200086
:101CBA00C100080040082200C80020003F08220096
:101CCA00C70020003E082200C60020003D0822006E
:101CDA00C50040302100E000DF01DE01DD01220005
:101CEA0048082100DC00220047082100DB0022000E
:101CFA0046082100DA00220045082100D900080020
:101D0A005C082200D60021005B082200D5002100D1
:101D1A005A082200D400210059082200D30056088C
:101D2A002100A300220055082100A2002200540825
:101D3A002100A100220053082100A000220008006F
:101D4A00FB00890D893B8909FC00FD0001347008FC
:101D5A002200CD007108CE00CF01D0015008FD004D
:101D6A004F08FC004E08FB004D08FA0000345908E1
:101D7A002100A300200058082100A20020005708D3
:101D8A002100A100200056082100A0000800230815
:101D9A002200C800210022082200C70021002108D1
:101DAA002200C600210020082200C50008005108B0
:101DBA002000AD00210050082000AC0021004F088F
:101DCA002000AB0021004E082000AA000800590894
:101DDA002100A700200058082100A600200057086B
:101DEA002100A500200056082100A40008007D0853
:101DFA00D9007C08D8007B08D7007A08D6002200D0
:101E0A0008002000AA00AE01AF01B001B10108002C
:101E1A00860001308700403F2000BD00413FBE00E0
:101E2A00423FBF00433FC00008005C08F3005B0864
:101E3A00F2005A08F1005908F00008005108F300AE
:101E4A005008F2004F08F1004E0808004008DD0073
:101E5A003F08DC003E08DB003D08DA000800AE015E
:101E6A00AF01B001B1010800D901DA01DB01DC01DF
:101E7A0008008030F801F901FA01FB000800CE01E0
:101E8A00CF01D001D1010800A936A80CA70CA60CD5
:101E9A00080002302200A000A101A201003085271B
:101EAA0088312200A3000130852788312200A4004E
:101EBA000230852788312200A50003308527883122
:101ECA002200A6000430852788312200A7000530A9
:101EDA00852788312200A80006308527883122000C
:101EEA00A9000730852788312200AA0008308527F3
:101EFA0088312200AB00093085272200AC00080097
:101F0A00F000882F2200640023009518872F70089C
:101F1A00910092013F3095051514130808004908ED
:101F2A002000AD00210048082000AC00210047082D
:101F3A002000AB0021004608062788319B23883100
:101F4A00031CA92F2100FB2F210049087F39CC004F
:101F5A00CD01CC35CD0D4C08CA074D08CB3D480DF7
:101F6A00480D0139CA070318CB0ACB1FBD2FFB2F17
:101F7A004B08803ACC0081304C02031DC62F00303A
:101F8A004A02031CDE2F21004908F3004808F20028
:101F9A004708F1004608833187238831F9248831BC
:101FAA000318DB2FFF30C9007F30F62F7F30C900BE
:101FBA00F62F21004B08CD004A08CC004D0DCD0C60
:101FCA00CC0C49084C0680394C06C9004A0801392C
:101FDA00CC00CC0CCC0C48084C067F394C06C80007
:101FEA000800C800FF30C700C6000800C601C701C4
:061FFA00C801C901080046
:020000040001F9
:04000E00DCCFFFDF65
:10E0000010000000100000004200800034007B007F
:10E0100010000000FF00FF00FF00FF00FF00FF00F6
:00000001FF
